{
  "_format": "hh-sol-artifact-1",
  "contractName": "ChainSureStablecoin",
  "sourceName": "contracts/ChainSureStablecoin.sol",
  "abi": [
    {
      "inputs": [
        {
          "internalType": "address",
          "name": "_priceOracle",
          "type": "address"
        },
        {
          "internalType": "uint256",
          "name": "_inrPegRate",
          "type": "uint256"
        }
      ],
      "stateMutability": "nonpayable",
      "type": "constructor"
    },
    {
      "anonymous": false,
      "inputs": [
        {
          "indexed": true,
          "internalType": "address",
          "name": "owner",
          "type": "address"
        },
        {
          "indexed": true,
          "internalType": "address",
          "name": "spender",
          "type": "address"
        },
        {
          "indexed": false,
          "internalType": "uint256",
          "name": "value",
          "type": "uint256"
        }
      ],
      "name": "Approval",
      "type": "event"
    },
    {
      "anonymous": false,
      "inputs": [
        {
          "indexed": true,
          "internalType": "address",
          "name": "from",
          "type": "address"
        },
        {
          "indexed": false,
          "internalType": "uint256",
          "name": "amount",
          "type": "uint256"
        },
        {
          "indexed": false,
          "internalType": "string",
          "name": "reason",
          "type": "string"
        }
      ],
      "name": "Burned",
      "type": "event"
    },
    {
      "anonymous": false,
      "inputs": [
        {
          "indexed": true,
          "internalType": "address",
          "name": "to",
          "type": "address"
        },
        {
          "indexed": false,
          "internalType": "uint256",
          "name": "amount",
          "type": "uint256"
        },
        {
          "indexed": false,
          "internalType": "string",
          "name": "reason",
          "type": "string"
        }
      ],
      "name": "Minted",
      "type": "event"
    },
    {
      "anonymous": false,
      "inputs": [
        {
          "indexed": true,
          "internalType": "address",
          "name": "minter",
          "type": "address"
        }
      ],
      "name": "MinterAdded",
      "type": "event"
    },
    {
      "anonymous": false,
      "inputs": [
        {
          "indexed": true,
          "internalType": "address",
          "name": "minter",
          "type": "address"
        }
      ],
      "name": "MinterRemoved",
      "type": "event"
    },
    {
      "anonymous": false,
      "inputs": [
        {
          "indexed": true,
          "internalType": "address",
          "name": "previousOwner",
          "type": "address"
        },
        {
          "indexed": true,
          "internalType": "address",
          "name": "newOwner",
          "type": "address"
        }
      ],
      "name": "OwnershipTransferred",
      "type": "event"
    },
    {
      "anonymous": false,
      "inputs": [
        {
          "indexed": false,
          "internalType": "address",
          "name": "account",
          "type": "address"
        }
      ],
      "name": "Paused",
      "type": "event"
    },
    {
      "anonymous": false,
      "inputs": [
        {
          "indexed": false,
          "internalType": "uint256",
          "name": "oldRate",
          "type": "uint256"
        },
        {
          "indexed": false,
          "internalType": "uint256",
          "name": "newRate",
          "type": "uint256"
        }
      ],
      "name": "PegAdjustment",
      "type": "event"
    },
    {
      "anonymous": false,
      "inputs": [
        {
          "indexed": true,
          "internalType": "address",
          "name": "newOracle",
          "type": "address"
        }
      ],
      "name": "PriceOracleUpdated",
      "type": "event"
    },
    {
      "anonymous": false,
      "inputs": [
        {
          "indexed": true,
          "internalType": "address",
          "name": "from",
          "type": "address"
        },
        {
          "indexed": true,
          "internalType": "address",
          "name": "to",
          "type": "address"
        },
        {
          "indexed": false,
          "internalType": "uint256",
          "name": "value",
          "type": "uint256"
        }
      ],
      "name": "Transfer",
      "type": "event"
    },
    {
      "anonymous": false,
      "inputs": [
        {
          "indexed": false,
          "internalType": "address",
          "name": "account",
          "type": "address"
        }
      ],
      "name": "Unpaused",
      "type": "event"
    },
    {
      "inputs": [],
      "name": "DAILY_MINT_RESET",
      "outputs": [
        {
          "internalType": "uint256",
          "name": "",
          "type": "uint256"
        }
      ],
      "stateMutability": "view",
      "type": "function"
    },
    {
      "inputs": [],
      "name": "MAX_SUPPLY",
      "outputs": [
        {
          "internalType": "uint256",
          "name": "",
          "type": "uint256"
        }
      ],
      "stateMutability": "view",
      "type": "function"
    },
    {
      "inputs": [
        {
          "internalType": "address",
          "name": "minter",
          "type": "address"
        },
        {
          "internalType": "uint256",
          "name": "_dailyLimit",
          "type": "uint256"
        }
      ],
      "name": "addMinter",
      "outputs": [],
      "stateMutability": "nonpayable",
      "type": "function"
    },
    {
      "inputs": [
        {
          "internalType": "address",
          "name": "owner",
          "type": "address"
        },
        {
          "internalType": "address",
          "name": "spender",
          "type": "address"
        }
      ],
      "name": "allowance",
      "outputs": [
        {
          "internalType": "uint256",
          "name": "",
          "type": "uint256"
        }
      ],
      "stateMutability": "view",
      "type": "function"
    },
    {
      "inputs": [
        {
          "internalType": "address",
          "name": "spender",
          "type": "address"
        },
        {
          "internalType": "uint256",
          "name": "amount",
          "type": "uint256"
        }
      ],
      "name": "approve",
      "outputs": [
        {
          "internalType": "bool",
          "name": "",
          "type": "bool"
        }
      ],
      "stateMutability": "nonpayable",
      "type": "function"
    },
    {
      "inputs": [],
      "name": "areReservesSufficient",
      "outputs": [
        {
          "internalType": "bool",
          "name": "",
          "type": "bool"
        }
      ],
      "stateMutability": "view",
      "type": "function"
    },
    {
      "inputs": [
        {
          "internalType": "address",
          "name": "account",
          "type": "address"
        }
      ],
      "name": "balanceOf",
      "outputs": [
        {
          "internalType": "uint256",
          "name": "",
          "type": "uint256"
        }
      ],
      "stateMutability": "view",
      "type": "function"
    },
    {
      "inputs": [
        {
          "internalType": "uint256",
          "name": "amount",
          "type": "uint256"
        }
      ],
      "name": "burn",
      "outputs": [],
      "stateMutability": "nonpayable",
      "type": "function"
    },
    {
      "inputs": [
        {
          "internalType": "address",
          "name": "account",
          "type": "address"
        },
        {
          "internalType": "uint256",
          "name": "amount",
          "type": "uint256"
        }
      ],
      "name": "burnFrom",
      "outputs": [],
      "stateMutability": "nonpayable",
      "type": "function"
    },
    {
      "inputs": [
        {
          "internalType": "address",
          "name": "from",
          "type": "address"
        },
        {
          "internalType": "uint256",
          "name": "amount",
          "type": "uint256"
        },
        {
          "internalType": "string",
          "name": "reason",
          "type": "string"
        }
      ],
      "name": "burnFrom",
      "outputs": [],
      "stateMutability": "nonpayable",
      "type": "function"
    },
    {
      "inputs": [
        {
          "internalType": "address",
          "name": "",
          "type": "address"
        }
      ],
      "name": "dailyMintLimit",
      "outputs": [
        {
          "internalType": "uint256",
          "name": "",
          "type": "uint256"
        }
      ],
      "stateMutability": "view",
      "type": "function"
    },
    {
      "inputs": [
        {
          "internalType": "address",
          "name": "",
          "type": "address"
        }
      ],
      "name": "dailyMinted",
      "outputs": [
        {
          "internalType": "uint256",
          "name": "",
          "type": "uint256"
        }
      ],
      "stateMutability": "view",
      "type": "function"
    },
    {
      "inputs": [],
      "name": "decimals",
      "outputs": [
        {
          "internalType": "uint8",
          "name": "",
          "type": "uint8"
        }
      ],
      "stateMutability": "view",
      "type": "function"
    },
    {
      "inputs": [
        {
          "internalType": "address",
          "name": "spender",
          "type": "address"
        },
        {
          "internalType": "uint256",
          "name": "subtractedValue",
          "type": "uint256"
        }
      ],
      "name": "decreaseAllowance",
      "outputs": [
        {
          "internalType": "bool",
          "name": "",
          "type": "bool"
        }
      ],
      "stateMutability": "nonpayable",
      "type": "function"
    },
    {
      "inputs": [
        {
          "internalType": "uint256",
          "name": "tokenAmount",
          "type": "uint256"
        }
      ],
      "name": "getINREquivalent",
      "outputs": [
        {
          "internalType": "uint256",
          "name": "",
          "type": "uint256"
        }
      ],
      "stateMutability": "view",
      "type": "function"
    },
    {
      "inputs": [],
      "name": "getReserveCoverage",
      "outputs": [
        {
          "internalType": "uint256",
          "name": "",
          "type": "uint256"
        }
      ],
      "stateMutability": "view",
      "type": "function"
    },
    {
      "inputs": [
        {
          "internalType": "uint256",
          "name": "inrAmount",
          "type": "uint256"
        }
      ],
      "name": "getTokenEquivalent",
      "outputs": [
        {
          "internalType": "uint256",
          "name": "",
          "type": "uint256"
        }
      ],
      "stateMutability": "view",
      "type": "function"
    },
    {
      "inputs": [
        {
          "internalType": "address",
          "name": "spender",
          "type": "address"
        },
        {
          "internalType": "uint256",
          "name": "addedValue",
          "type": "uint256"
        }
      ],
      "name": "increaseAllowance",
      "outputs": [
        {
          "internalType": "bool",
          "name": "",
          "type": "bool"
        }
      ],
      "stateMutability": "nonpayable",
      "type": "function"
    },
    {
      "inputs": [],
      "name": "inrPegRate",
      "outputs": [
        {
          "internalType": "uint256",
          "name": "",
          "type": "uint256"
        }
      ],
      "stateMutability": "view",
      "type": "function"
    },
    {
      "inputs": [
        {
          "internalType": "address",
          "name": "",
          "type": "address"
        }
      ],
      "name": "lastMintDay",
      "outputs": [
        {
          "internalType": "uint256",
          "name": "",
          "type": "uint256"
        }
      ],
      "stateMutability": "view",
      "type": "function"
    },
    {
      "inputs": [
        {
          "internalType": "address",
          "name": "to",
          "type": "address"
        },
        {
          "internalType": "uint256",
          "name": "amount",
          "type": "uint256"
        },
        {
          "internalType": "string",
          "name": "reason",
          "type": "string"
        }
      ],
      "name": "mint",
      "outputs": [],
      "stateMutability": "nonpayable",
      "type": "function"
    },
    {
      "inputs": [
        {
          "internalType": "address",
          "name": "",
          "type": "address"
        }
      ],
      "name": "minters",
      "outputs": [
        {
          "internalType": "bool",
          "name": "",
          "type": "bool"
        }
      ],
      "stateMutability": "view",
      "type": "function"
    },
    {
      "inputs": [],
      "name": "name",
      "outputs": [
        {
          "internalType": "string",
          "name": "",
          "type": "string"
        }
      ],
      "stateMutability": "view",
      "type": "function"
    },
    {
      "inputs": [],
      "name": "owner",
      "outputs": [
        {
          "internalType": "address",
          "name": "",
          "type": "address"
        }
      ],
      "stateMutability": "view",
      "type": "function"
    },
    {
      "inputs": [],
      "name": "pause",
      "outputs": [],
      "stateMutability": "nonpayable",
      "type": "function"
    },
    {
      "inputs": [],
      "name": "paused",
      "outputs": [
        {
          "internalType": "bool",
          "name": "",
          "type": "bool"
        }
      ],
      "stateMutability": "view",
      "type": "function"
    },
    {
      "inputs": [],
      "name": "priceOracle",
      "outputs": [
        {
          "internalType": "address",
          "name": "",
          "type": "address"
        }
      ],
      "stateMutability": "view",
      "type": "function"
    },
    {
      "inputs": [
        {
          "internalType": "address",
          "name": "minter",
          "type": "address"
        }
      ],
      "name": "removeMinter",
      "outputs": [],
      "stateMutability": "nonpayable",
      "type": "function"
    },
    {
      "inputs": [],
      "name": "renounceOwnership",
      "outputs": [],
      "stateMutability": "nonpayable",
      "type": "function"
    },
    {
      "inputs": [],
      "name": "reserveRatio",
      "outputs": [
        {
          "internalType": "uint256",
          "name": "",
          "type": "uint256"
        }
      ],
      "stateMutability": "view",
      "type": "function"
    },
    {
      "inputs": [],
      "name": "symbol",
      "outputs": [
        {
          "internalType": "string",
          "name": "",
          "type": "string"
        }
      ],
      "stateMutability": "view",
      "type": "function"
    },
    {
      "inputs": [],
      "name": "totalReserves",
      "outputs": [
        {
          "internalType": "uint256",
          "name": "",
          "type": "uint256"
        }
      ],
      "stateMutability": "view",
      "type": "function"
    },
    {
      "inputs": [],
      "name": "totalSupply",
      "outputs": [
        {
          "internalType": "uint256",
          "name": "",
          "type": "uint256"
        }
      ],
      "stateMutability": "view",
      "type": "function"
    },
    {
      "inputs": [
        {
          "internalType": "address",
          "name": "to",
          "type": "address"
        },
        {
          "internalType": "uint256",
          "name": "amount",
          "type": "uint256"
        }
      ],
      "name": "transfer",
      "outputs": [
        {
          "internalType": "bool",
          "name": "",
          "type": "bool"
        }
      ],
      "stateMutability": "nonpayable",
      "type": "function"
    },
    {
      "inputs": [
        {
          "internalType": "address",
          "name": "from",
          "type": "address"
        },
        {
          "internalType": "address",
          "name": "to",
          "type": "address"
        },
        {
          "internalType": "uint256",
          "name": "amount",
          "type": "uint256"
        }
      ],
      "name": "transferFrom",
      "outputs": [
        {
          "internalType": "bool",
          "name": "",
          "type": "bool"
        }
      ],
      "stateMutability": "nonpayable",
      "type": "function"
    },
    {
      "inputs": [
        {
          "internalType": "address",
          "name": "newOwner",
          "type": "address"
        }
      ],
      "name": "transferOwnership",
      "outputs": [],
      "stateMutability": "nonpayable",
      "type": "function"
    },
    {
      "inputs": [],
      "name": "unpause",
      "outputs": [],
      "stateMutability": "nonpayable",
      "type": "function"
    },
    {
      "inputs": [
        {
          "internalType": "address",
          "name": "minter",
          "type": "address"
        },
        {
          "internalType": "uint256",
          "name": "newLimit",
          "type": "uint256"
        }
      ],
      "name": "updateDailyLimit",
      "outputs": [],
      "stateMutability": "nonpayable",
      "type": "function"
    },
    {
      "inputs": [
        {
          "internalType": "uint256",
          "name": "newRate",
          "type": "uint256"
        }
      ],
      "name": "updatePegRate",
      "outputs": [],
      "stateMutability": "nonpayable",
      "type": "function"
    },
    {
      "inputs": [
        {
          "internalType": "address",
          "name": "newOracle",
          "type": "address"
        }
      ],
      "name": "updatePriceOracle",
      "outputs": [],
      "stateMutability": "nonpayable",
      "type": "function"
    },
    {
      "inputs": [
        {
          "internalType": "uint256",
          "name": "newRatio",
          "type": "uint256"
        }
      ],
      "name": "updateReserveRatio",
      "outputs": [],
      "stateMutability": "nonpayable",
      "type": "function"
    },
    {
      "inputs": [
        {
          "internalType": "uint256",
          "name": "newReserves",
          "type": "uint256"
        }
      ],
      "name": "updateReserves",
      "outputs": [],
      "stateMutability": "nonpayable",
      "type": "function"
    }
  ],
  "bytecode": "0x6080604052611f40600d553480156200001757600080fd5b5060405162002276380380620022768339810160408190526200003a91620002aa565b6040518060400160405280600d81526020016c21b430b4b729bab9329024a72960991b8152506040518060400160405280600581526020016431b9a4a72960d91b81525081600390816200008f91906200038a565b5060046200009e82826200038a565b505050620000bb620000b56200018960201b60201c565b6200018d565b6005805460ff60a01b191690556001600655600b80546001600160a01b0319166001600160a01b038416179055600c819055620001033369d3c21bcecceda1000000620001df565b69a968163f0a57b4000000600e5560405133907fe7cd4ce7f2a465edc730269a1305e8a48bad821e8fb7e152ec413829c01a53c490620001799069d3c21bcecceda1000000815260406020820181905260119082015270496e697469616c206c697175696469747960781b606082015260800190565b60405180910390a250506200047e565b3390565b600580546001600160a01b038381166001600160a01b0319831681179093556040519116919082907f8be0079c531659141344cd1fd0a4f28419497f9722a3daafe3b4186f6b6457e090600090a35050565b6001600160a01b0382166200023a5760405162461bcd60e51b815260206004820152601f60248201527f45524332303a206d696e7420746f20746865207a65726f206164647265737300604482015260640160405180910390fd5b80600260008282546200024e919062000456565b90915550506001600160a01b038216600081815260208181526040808320805486019055518481527fddf252ad1be2c89b69c2b068fc378daa952ba7f163c4a11628f55a4df523b3ef910160405180910390a35050565b505050565b60008060408385031215620002be57600080fd5b82516001600160a01b0381168114620002d657600080fd5b6020939093015192949293505050565b634e487b7160e01b600052604160045260246000fd5b600181811c908216806200031157607f821691505b6020821081036200033257634e487b7160e01b600052602260045260246000fd5b50919050565b601f821115620002a557600081815260208120601f850160051c81016020861015620003615750805b601f850160051c820191505b8181101562000382578281556001016200036d565b505050505050565b81516001600160401b03811115620003a657620003a6620002e6565b620003be81620003b78454620002fc565b8462000338565b602080601f831160018114620003f65760008415620003dd5750858301515b600019600386901b1c1916600185901b17855562000382565b600085815260208120601f198616915b82811015620004275788860151825594840194600190910190840162000406565b5085821015620004465787850151600019600388901b60f8161c191681555b5050505050600190811b01905550565b808201808211156200047857634e487b7160e01b600052601160045260246000fd5b92915050565b611de8806200048e6000396000f3fe608060405234801561001057600080fd5b506004361061025e5760003560e01c8063761248b411610146578063a457c2d7116100c3578063c6e3917e11610087578063c6e3917e1461051f578063d3fc986414610532578063d809456614610545578063dd62ed3e1461054d578063f2fde38b14610560578063f46eccc41461057357600080fd5b8063a457c2d7146104d5578063a9059cbb146104e8578063aaa0f1b0146104fb578063b33aff5e14610503578063bccaf6401461051657600080fd5b80638f840ddd1161010a5780638f840ddd1461047e57806395d1d05b1461048757806395d89b411461049a578063979430d2146104a25780639d815d2f146104b557600080fd5b8063761248b41461041f57806379cc6790146104325780638456cb59146104455780638a1a30c81461044d5780638da5cb5b1461046d57600080fd5b806331492392116101df5780633f4ba83a116101a35780633f4ba83a146103ae57806342966c68146103b65780635a81bffa146103c95780635c975abb146103dc57806370a08231146103ee578063715018a61461041757600080fd5b8063314923921461034f57806332cb6b0c14610362578063395093511461037557806339d1fc82146103885780633d29ac2b1461039b57600080fd5b8063245b4feb11610226578063245b4feb146102d65780632630c12f146102e05780632ddbeb521461030b5780633092afd51461032b578063313ce5671461034057600080fd5b806306fdde0314610263578063095ea7b3146102815780630c7d5cd8146102a457806318160ddd146102bb57806323b872dd146102c3575b600080fd5b61026b610596565b6040516102789190611a8b565b60405180910390f35b61029461028f366004611aba565b610628565b6040519015158152602001610278565b6102ad600d5481565b604051908152602001610278565b6002546102ad565b6102946102d1366004611ae4565b610642565b6102ad6201518081565b600b546102f3906001600160a01b031681565b6040516001600160a01b039091168152602001610278565b6102ad610319366004611b20565b600a6020526000908152604090205481565b61033e610339366004611b20565b61065f565b005b60405160128152602001610278565b61033e61035d366004611b3b565b610708565b6102ad6b204fce5e3e2502611000000081565b610294610383366004611aba565b61073c565b61033e610396366004611b20565b61075e565b6102ad6103a9366004611b3b565b610821565b61033e610844565b61033e6103c4366004611b3b565b610856565b61033e6103d7366004611b3b565b610863565b600554600160a01b900460ff16610294565b6102ad6103fc366004611b20565b6001600160a01b031660009081526020819052604090205490565b61033e610917565b61033e61042d366004611aba565b610929565b61033e610440366004611aba565b610a78565b61033e610a91565b6102ad61045b366004611b20565b60086020526000908152604090205481565b6005546001600160a01b03166102f3565b6102ad600e5481565b61033e610495366004611b3b565b610aa1565b61026b610b8f565b61033e6104b0366004611b6a565b610b9e565b6102ad6104c3366004611b20565b60096020526000908152604090205481565b6102946104e3366004611aba565b610d98565b6102946104f6366004611aba565b610e1e565b6102ad610e39565b6102ad610511366004611b3b565b610e73565b6102ad600c5481565b61033e61052d366004611aba565b610e8b565b61033e610540366004611b6a565b610ee7565b6102946111d2565b6102ad61055b366004611c35565b611210565b61033e61056e366004611b20565b61123b565b610294610581366004611b20565b60076020526000908152604090205460ff1681565b6060600380546105a590611c68565b80601f01602080910402602001604051908101604052809291908181526020018280546105d190611c68565b801561061e5780601f106105f35761010080835404028352916020019161061e565b820191906000526020600020905b81548152906001019060200180831161060157829003601f168201915b5050505050905090565b6000336106368185856112b1565b60019150505b92915050565b600061064c6113d5565b610657848484611422565b949350505050565b61066761143b565b6001600160a01b03811660009081526007602052604090205460ff166106a85760405162461bcd60e51b815260040161069f90611ca2565b60405180910390fd5b6001600160a01b0381166000818152600760209081526040808320805460ff19169055600882528083208390556009909152808220829055517fe94479a9f7e1952cc78f2d6baab678adc1b772d936c6583def489e524cb666929190a250565b3360009081526007602052604090205460ff166107375760405162461bcd60e51b815260040161069f90611cec565b600e55565b60003361063681858561074f8383611210565b6107599190611d4d565b6112b1565b61076661143b565b6001600160a01b0381166107d75760405162461bcd60e51b815260206004820152603260248201527f436861696e53757265537461626c65636f696e3a206f7261636c652063616e6e6044820152716f74206265207a65726f206164647265737360701b606482015260840161069f565b600b80546001600160a01b0319166001600160a01b0383169081179091556040517fefe8ab924ca486283a79dc604baa67add51afb82af1db8ac386ebbba643cdffd90600090a250565b6000670de0b6b3a7640000600c548361083a9190611d60565b61063c9190611d77565b61084c61143b565b610854611495565b565b61086033826114ea565b50565b61086b61143b565b600081116108d25760405162461bcd60e51b815260206004820152602e60248201527f436861696e53757265537461626c65636f696e3a207065672072617465206d7560448201526d737420626520706f73697469766560901b606482015260840161069f565b600c80549082905560408051828152602081018490527f3831d1c75c1d4d6a4e0a8c2a1631564d634f97b77a4f22c44cc886f0e857088a910160405180910390a15050565b61091f61143b565b610854600061161c565b61093161143b565b6001600160a01b0382166109a25760405162461bcd60e51b815260206004820152603260248201527f436861696e53757265537461626c65636f696e3a206d696e7465722063616e6e6044820152716f74206265207a65726f206164647265737360701b606482015260840161069f565b6001600160a01b03821660009081526007602052604090205460ff1615610a1e5760405162461bcd60e51b815260206004820152602a60248201527f436861696e53757265537461626c65636f696e3a206d696e74657220616c72656044820152696164792065786973747360b01b606482015260840161069f565b6001600160a01b0382166000818152600760209081526040808320805460ff191660011790556008909152808220849055517f6ae172837ea30b801fbfcdd4108aa1d5bf8ff775444fd70256b44e6bf3dfc3f69190a25050565b610a8382338361166e565b610a8d82826114ea565b5050565b610a9961143b565b6108546116e8565b610aa961143b565b612710811115610b195760405162461bcd60e51b815260206004820152603560248201527f436861696e53757265537461626c65636f696e3a207265736572766520726174604482015274696f2063616e6e6f7420657863656564203130302560581b606482015260840161069f565b611388811015610b8a5760405162461bcd60e51b815260206004820152603660248201527f436861696e53757265537461626c65636f696e3a207265736572766520726174604482015275696f2063616e6e6f742062652062656c6f772035302560501b606482015260840161069f565b600d55565b6060600480546105a590611c68565b3360009081526007602052604090205460ff16610bcd5760405162461bcd60e51b815260040161069f90611cec565b610bd56113d5565b610bdd61172b565b6001600160a01b038316610c475760405162461bcd60e51b815260206004820152602b60248201527f436861696e53757265537461626c65636f696e3a206275726e2066726f6d207a60448201526a65726f206164647265737360a81b606482015260840161069f565b60008211610cb15760405162461bcd60e51b815260206004820152603160248201527f436861696e53757265537461626c65636f696e3a206275726e20616d6f756e74604482015270206d75737420626520706f73697469766560781b606482015260840161069f565b81610cd1846001600160a01b031660009081526020819052604090205490565b1015610d315760405162461bcd60e51b815260206004820152602960248201527f436861696e53757265537461626c65636f696e3a20696e73756666696369656e604482015268742062616c616e636560b81b606482015260840161069f565b610d3c83338461166e565b610d4683836114ea565b826001600160a01b03167f0bd10d08cdd688ae27d8149d34aea2ddb78c6e0116355640cf1af79a2c9ab3948383604051610d81929190611d99565b60405180910390a2610d936001600655565b505050565b60003381610da68286611210565b905083811015610e065760405162461bcd60e51b815260206004820152602560248201527f45524332303a2064656372656173656420616c6c6f77616e63652062656c6f77604482015264207a65726f60d81b606482015260840161069f565b610e1382868684036112b1565b506001949350505050565b6000610e286113d5565b610e328383611784565b9392505050565b6000610e4460025490565b600003610e52575061271090565b600254600e54610e6490612710611d60565b610e6e9190611d77565b905090565b600c5460009061083a83670de0b6b3a7640000611d60565b610e9361143b565b6001600160a01b03821660009081526007602052604090205460ff16610ecb5760405162461bcd60e51b815260040161069f90611ca2565b6001600160a01b03909116600090815260086020526040902055565b3360009081526007602052604090205460ff16610f165760405162461bcd60e51b815260040161069f90611cec565b610f1e6113d5565b816000610f2e6201518042611d77565b336000908152600a6020526040902054909150811115610f6857336000908152600960209081526040808320839055600a90915290208190555b33600090815260086020908152604080832054600990925290912054610f8f908490611d4d565b1115610ff45760405162461bcd60e51b815260206004820152602e60248201527f436861696e53757265537461626c65636f696e3a206461696c79206d696e742060448201526d1b1a5b5a5d08195e18d95959195960921b606482015260840161069f565b610ffc61172b565b6001600160a01b0385166110645760405162461bcd60e51b815260206004820152602960248201527f436861696e53757265537461626c65636f696e3a206d696e7420746f207a65726044820152686f206164647265737360b81b606482015260840161069f565b600084116110ce5760405162461bcd60e51b815260206004820152603160248201527f436861696e53757265537461626c65636f696e3a206d696e7420616d6f756e74604482015270206d75737420626520706f73697469766560781b606482015260840161069f565b6b204fce5e3e25026110000000846110e560025490565b6110ef9190611d4d565b111561114e5760405162461bcd60e51b815260206004820152602860248201527f436861696e53757265537461626c65636f696e3a206d617820737570706c7920604482015267195e18d95959195960c21b606482015260840161069f565b6111588585611792565b3360009081526009602052604081208054869290611177908490611d4d565b92505081905550846001600160a01b03167fe7cd4ce7f2a465edc730269a1305e8a48bad821e8fb7e152ec413829c01a53c485856040516111b9929190611d99565b60405180910390a26111cb6001600655565b5050505050565b60006111dd60025490565b6000036111ea5750600190565b600d54600254600e546111ff90612710611d60565b6112099190611d77565b1015905090565b6001600160a01b03918216600090815260016020908152604080832093909416825291909152205490565b61124361143b565b6001600160a01b0381166112a85760405162461bcd60e51b815260206004820152602660248201527f4f776e61626c653a206e6577206f776e657220697320746865207a65726f206160448201526564647265737360d01b606482015260840161069f565b6108608161161c565b6001600160a01b0383166113135760405162461bcd60e51b8152602060048201526024808201527f45524332303a20617070726f76652066726f6d20746865207a65726f206164646044820152637265737360e01b606482015260840161069f565b6001600160a01b0382166113745760405162461bcd60e51b815260206004820152602260248201527f45524332303a20617070726f766520746f20746865207a65726f206164647265604482015261737360f01b606482015260840161069f565b6001600160a01b0383811660008181526001602090815260408083209487168084529482529182902085905590518481527f8c5be1e5ebec7d5bd14f71427d1e84f3dd0314c0f7b2291e5b200ac8c7c3b925910160405180910390a3505050565b600554600160a01b900460ff16156108545760405162461bcd60e51b815260206004820152601060248201526f14185d5cd8589b194e881c185d5cd95960821b604482015260640161069f565b60003361143085828561166e565b610e13858585611851565b6005546001600160a01b031633146108545760405162461bcd60e51b815260206004820181905260248201527f4f776e61626c653a2063616c6c6572206973206e6f7420746865206f776e6572604482015260640161069f565b61149d6119f5565b6005805460ff60a01b191690557f5db9ee0a495bf2e6ff9c91a7834c1ba4fdd244a5e8aa4e537bd38aeae4b073aa335b6040516001600160a01b03909116815260200160405180910390a1565b6001600160a01b03821661154a5760405162461bcd60e51b815260206004820152602160248201527f45524332303a206275726e2066726f6d20746865207a65726f206164647265736044820152607360f81b606482015260840161069f565b6001600160a01b038216600090815260208190526040902054818110156115be5760405162461bcd60e51b815260206004820152602260248201527f45524332303a206275726e20616d6f756e7420657863656564732062616c616e604482015261636560f01b606482015260840161069f565b6001600160a01b0383166000818152602081815260408083208686039055600280548790039055518581529192917fddf252ad1be2c89b69c2b068fc378daa952ba7f163c4a11628f55a4df523b3ef910160405180910390a3505050565b600580546001600160a01b038381166001600160a01b0319831681179093556040519116919082907f8be0079c531659141344cd1fd0a4f28419497f9722a3daafe3b4186f6b6457e090600090a35050565b600061167a8484611210565b905060001981146116e257818110156116d55760405162461bcd60e51b815260206004820152601d60248201527f45524332303a20696e73756666696369656e7420616c6c6f77616e6365000000604482015260640161069f565b6116e284848484036112b1565b50505050565b6116f06113d5565b6005805460ff60a01b1916600160a01b1790557f62e78cea01bee320cd4e420270b5ea74000d11b0c9f74754ebdbfc544b05a2586114cd3390565b60026006540361177d5760405162461bcd60e51b815260206004820152601f60248201527f5265656e7472616e637947756172643a207265656e7472616e742063616c6c00604482015260640161069f565b6002600655565b600033610636818585611851565b6001600160a01b0382166117e85760405162461bcd60e51b815260206004820152601f60248201527f45524332303a206d696e7420746f20746865207a65726f206164647265737300604482015260640161069f565b80600260008282546117fa9190611d4d565b90915550506001600160a01b038216600081815260208181526040808320805486019055518481527fddf252ad1be2c89b69c2b068fc378daa952ba7f163c4a11628f55a4df523b3ef910160405180910390a35050565b6001600160a01b0383166118b55760405162461bcd60e51b815260206004820152602560248201527f45524332303a207472616e736665722066726f6d20746865207a65726f206164604482015264647265737360d81b606482015260840161069f565b6001600160a01b0382166119175760405162461bcd60e51b815260206004820152602360248201527f45524332303a207472616e7366657220746f20746865207a65726f206164647260448201526265737360e81b606482015260840161069f565b6001600160a01b0383166000908152602081905260409020548181101561198f5760405162461bcd60e51b815260206004820152602660248201527f45524332303a207472616e7366657220616d6f756e7420657863656564732062604482015265616c616e636560d01b606482015260840161069f565b6001600160a01b03848116600081815260208181526040808320878703905593871680835291849020805487019055925185815290927fddf252ad1be2c89b69c2b068fc378daa952ba7f163c4a11628f55a4df523b3ef910160405180910390a36116e2565b600554600160a01b900460ff166108545760405162461bcd60e51b815260206004820152601460248201527314185d5cd8589b194e881b9bdd081c185d5cd95960621b604482015260640161069f565b6000815180845260005b81811015611a6b57602081850181015186830182015201611a4f565b506000602082860101526020601f19601f83011685010191505092915050565b602081526000610e326020830184611a45565b80356001600160a01b0381168114611ab557600080fd5b919050565b60008060408385031215611acd57600080fd5b611ad683611a9e565b946020939093013593505050565b600080600060608486031215611af957600080fd5b611b0284611a9e565b9250611b1060208501611a9e565b9150604084013590509250925092565b600060208284031215611b3257600080fd5b610e3282611a9e565b600060208284031215611b4d57600080fd5b5035919050565b634e487b7160e01b600052604160045260246000fd5b600080600060608486031215611b7f57600080fd5b611b8884611a9e565b925060208401359150604084013567ffffffffffffffff80821115611bac57600080fd5b818601915086601f830112611bc057600080fd5b813581811115611bd257611bd2611b54565b604051601f8201601f19908116603f01168101908382118183101715611bfa57611bfa611b54565b81604052828152896020848701011115611c1357600080fd5b8260208601602083013760006020848301015280955050505050509250925092565b60008060408385031215611c4857600080fd5b611c5183611a9e565b9150611c5f60208401611a9e565b90509250929050565b600181811c90821680611c7c57607f821691505b602082108103611c9c57634e487b7160e01b600052602260045260246000fd5b50919050565b6020808252602a908201527f436861696e53757265537461626c65636f696e3a206d696e74657220646f6573604082015269081b9bdd08195e1a5cdd60b21b606082015260800190565b6020808252602b908201527f436861696e53757265537461626c65636f696e3a2063616c6c6572206973206e60408201526a37ba10309036b4b73a32b960a91b606082015260800190565b634e487b7160e01b600052601160045260246000fd5b8082018082111561063c5761063c611d37565b808202811582820484141761063c5761063c611d37565b600082611d9457634e487b7160e01b600052601260045260246000fd5b500490565b8281526040602082015260006106576040830184611a4556fea2646970667358221220d94730a1c89fc5247dd06cef89ce370b27b8acc8b5077ab2b3587259bf2a3fea64736f6c63430008140033",
  "linkReferences": {},
  "deployedLinkReferences": {}
}