{
  "_format": "hh-sol-artifact-1",
  "contractName": "ChainSurePolicyNFT",
  "sourceName": "contracts/ChainSurePolicyNFT.sol",
  "abi": [
    {
      "inputs": [
        {
          "internalType": "address",
          "name": "_stablecoin",
          "type": "address"
        },
        {
          "internalType": "address",
          "name": "_treasuryAddress",
          "type": "address"
        }
      ],
      "stateMutability": "nonpayable",
      "type": "constructor"
    },
    {
      "anonymous": false,
      "inputs": [
        {
          "indexed": true,
          "internalType": "address",
          "name": "owner",
          "type": "address"
        },
        {
          "indexed": true,
          "internalType": "address",
          "name": "approved",
          "type": "address"
        },
        {
          "indexed": true,
          "internalType": "uint256",
          "name": "tokenId",
          "type": "uint256"
        }
      ],
      "name": "Approval",
      "type": "event"
    },
    {
      "anonymous": false,
      "inputs": [
        {
          "indexed": true,
          "internalType": "address",
          "name": "owner",
          "type": "address"
        },
        {
          "indexed": true,
          "internalType": "address",
          "name": "operator",
          "type": "address"
        },
        {
          "indexed": false,
          "internalType": "bool",
          "name": "approved",
          "type": "bool"
        }
      ],
      "name": "ApprovalForAll",
      "type": "event"
    },
    {
      "anonymous": false,
      "inputs": [
        {
          "indexed": false,
          "internalType": "uint256",
          "name": "_fromTokenId",
          "type": "uint256"
        },
        {
          "indexed": false,
          "internalType": "uint256",
          "name": "_toTokenId",
          "type": "uint256"
        }
      ],
      "name": "BatchMetadataUpdate",
      "type": "event"
    },
    {
      "anonymous": false,
      "inputs": [
        {
          "indexed": true,
          "internalType": "uint256",
          "name": "tokenId",
          "type": "uint256"
        },
        {
          "indexed": true,
          "internalType": "address",
          "name": "newBeneficiary",
          "type": "address"
        }
      ],
      "name": "BeneficiaryUpdated",
      "type": "event"
    },
    {
      "anonymous": false,
      "inputs": [
        {
          "indexed": false,
          "internalType": "uint256",
          "name": "_tokenId",
          "type": "uint256"
        }
      ],
      "name": "MetadataUpdate",
      "type": "event"
    },
    {
      "anonymous": false,
      "inputs": [
        {
          "indexed": true,
          "internalType": "address",
          "name": "previousOwner",
          "type": "address"
        },
        {
          "indexed": true,
          "internalType": "address",
          "name": "newOwner",
          "type": "address"
        }
      ],
      "name": "OwnershipTransferred",
      "type": "event"
    },
    {
      "anonymous": false,
      "inputs": [
        {
          "indexed": false,
          "internalType": "address",
          "name": "account",
          "type": "address"
        }
      ],
      "name": "Paused",
      "type": "event"
    },
    {
      "anonymous": false,
      "inputs": [
        {
          "indexed": true,
          "internalType": "uint256",
          "name": "tokenId",
          "type": "uint256"
        },
        {
          "indexed": false,
          "internalType": "uint256",
          "name": "claimAmount",
          "type": "uint256"
        },
        {
          "indexed": false,
          "internalType": "address",
          "name": "claimant",
          "type": "address"
        }
      ],
      "name": "PolicyClaimed",
      "type": "event"
    },
    {
      "anonymous": false,
      "inputs": [
        {
          "indexed": true,
          "internalType": "uint256",
          "name": "tokenId",
          "type": "uint256"
        },
        {
          "indexed": true,
          "internalType": "address",
          "name": "policyholder",
          "type": "address"
        },
        {
          "indexed": false,
          "internalType": "enum ChainSurePolicyNFT.PolicyType",
          "name": "policyType",
          "type": "uint8"
        },
        {
          "indexed": false,
          "internalType": "uint256",
          "name": "coverageAmount",
          "type": "uint256"
        },
        {
          "indexed": false,
          "internalType": "uint256",
          "name": "premium",
          "type": "uint256"
        },
        {
          "indexed": false,
          "internalType": "uint256",
          "name": "expiryDate",
          "type": "uint256"
        }
      ],
      "name": "PolicyCreated",
      "type": "event"
    },
    {
      "anonymous": false,
      "inputs": [
        {
          "indexed": true,
          "internalType": "uint256",
          "name": "tokenId",
          "type": "uint256"
        },
        {
          "indexed": false,
          "internalType": "uint256",
          "name": "newExpiryDate",
          "type": "uint256"
        },
        {
          "indexed": false,
          "internalType": "uint256",
          "name": "renewalPremium",
          "type": "uint256"
        }
      ],
      "name": "PolicyRenewed",
      "type": "event"
    },
    {
      "anonymous": false,
      "inputs": [
        {
          "indexed": true,
          "internalType": "uint256",
          "name": "tokenId",
          "type": "uint256"
        },
        {
          "indexed": false,
          "internalType": "uint256",
          "name": "amount",
          "type": "uint256"
        },
        {
          "indexed": false,
          "internalType": "address",
          "name": "payer",
          "type": "address"
        }
      ],
      "name": "PremiumPaid",
      "type": "event"
    },
    {
      "anonymous": false,
      "inputs": [
        {
          "indexed": true,
          "internalType": "address",
          "name": "from",
          "type": "address"
        },
        {
          "indexed": true,
          "internalType": "address",
          "name": "to",
          "type": "address"
        },
        {
          "indexed": true,
          "internalType": "uint256",
          "name": "tokenId",
          "type": "uint256"
        }
      ],
      "name": "Transfer",
      "type": "event"
    },
    {
      "anonymous": false,
      "inputs": [
        {
          "indexed": false,
          "internalType": "address",
          "name": "account",
          "type": "address"
        }
      ],
      "name": "Unpaused",
      "type": "event"
    },
    {
      "inputs": [],
      "name": "PREMIUM_DECIMALS",
      "outputs": [
        {
          "internalType": "uint256",
          "name": "",
          "type": "uint256"
        }
      ],
      "stateMutability": "view",
      "type": "function"
    },
    {
      "inputs": [
        {
          "internalType": "address",
          "name": "to",
          "type": "address"
        },
        {
          "internalType": "uint256",
          "name": "tokenId",
          "type": "uint256"
        }
      ],
      "name": "approve",
      "outputs": [],
      "stateMutability": "nonpayable",
      "type": "function"
    },
    {
      "inputs": [
        {
          "internalType": "address",
          "name": "owner",
          "type": "address"
        }
      ],
      "name": "balanceOf",
      "outputs": [
        {
          "internalType": "uint256",
          "name": "",
          "type": "uint256"
        }
      ],
      "stateMutability": "view",
      "type": "function"
    },
    {
      "inputs": [
        {
          "internalType": "enum ChainSurePolicyNFT.PolicyType",
          "name": "",
          "type": "uint8"
        }
      ],
      "name": "basePremiumRates",
      "outputs": [
        {
          "internalType": "uint256",
          "name": "",
          "type": "uint256"
        }
      ],
      "stateMutability": "view",
      "type": "function"
    },
    {
      "inputs": [
        {
          "internalType": "uint256",
          "name": "tokenId",
          "type": "uint256"
        }
      ],
      "name": "burn",
      "outputs": [],
      "stateMutability": "nonpayable",
      "type": "function"
    },
    {
      "inputs": [
        {
          "internalType": "enum ChainSurePolicyNFT.PolicyType",
          "name": "policyType",
          "type": "uint8"
        },
        {
          "internalType": "uint256",
          "name": "coverageAmount",
          "type": "uint256"
        }
      ],
      "name": "calculatePremium",
      "outputs": [
        {
          "internalType": "uint256",
          "name": "",
          "type": "uint256"
        }
      ],
      "stateMutability": "view",
      "type": "function"
    },
    {
      "inputs": [
        {
          "internalType": "uint256",
          "name": "",
          "type": "uint256"
        },
        {
          "internalType": "uint256",
          "name": "",
          "type": "uint256"
        }
      ],
      "name": "claimHistory",
      "outputs": [
        {
          "internalType": "uint256",
          "name": "claimId",
          "type": "uint256"
        },
        {
          "internalType": "uint256",
          "name": "amount",
          "type": "uint256"
        },
        {
          "internalType": "uint256",
          "name": "timestamp",
          "type": "uint256"
        },
        {
          "internalType": "address",
          "name": "claimant",
          "type": "address"
        },
        {
          "internalType": "bool",
          "name": "approved",
          "type": "bool"
        }
      ],
      "stateMutability": "view",
      "type": "function"
    },
    {
      "inputs": [
        {
          "internalType": "address",
          "name": "to",
          "type": "address"
        },
        {
          "internalType": "enum ChainSurePolicyNFT.PolicyType",
          "name": "policyType",
          "type": "uint8"
        },
        {
          "internalType": "uint256",
          "name": "coverageAmount",
          "type": "uint256"
        },
        {
          "internalType": "address",
          "name": "beneficiary",
          "type": "address"
        },
        {
          "internalType": "string",
          "name": "coverageTerms",
          "type": "string"
        },
        {
          "internalType": "bytes32",
          "name": "ipfsHash",
          "type": "bytes32"
        },
        {
          "internalType": "uint256",
          "name": "customTermLength",
          "type": "uint256"
        }
      ],
      "name": "createPolicy",
      "outputs": [
        {
          "internalType": "uint256",
          "name": "",
          "type": "uint256"
        }
      ],
      "stateMutability": "nonpayable",
      "type": "function"
    },
    {
      "inputs": [
        {
          "internalType": "enum ChainSurePolicyNFT.PolicyType",
          "name": "",
          "type": "uint8"
        }
      ],
      "name": "defaultTermLength",
      "outputs": [
        {
          "internalType": "uint256",
          "name": "",
          "type": "uint256"
        }
      ],
      "stateMutability": "view",
      "type": "function"
    },
    {
      "inputs": [
        {
          "internalType": "uint256",
          "name": "tokenId",
          "type": "uint256"
        }
      ],
      "name": "getApproved",
      "outputs": [
        {
          "internalType": "address",
          "name": "",
          "type": "address"
        }
      ],
      "stateMutability": "view",
      "type": "function"
    },
    {
      "inputs": [
        {
          "internalType": "uint256",
          "name": "tokenId",
          "type": "uint256"
        }
      ],
      "name": "getClaimHistory",
      "outputs": [
        {
          "components": [
            {
              "internalType": "uint256",
              "name": "claimId",
              "type": "uint256"
            },
            {
              "internalType": "uint256",
              "name": "amount",
              "type": "uint256"
            },
            {
              "internalType": "uint256",
              "name": "timestamp",
              "type": "uint256"
            },
            {
              "internalType": "address",
              "name": "claimant",
              "type": "address"
            },
            {
              "internalType": "bool",
              "name": "approved",
              "type": "bool"
            }
          ],
          "internalType": "struct ChainSurePolicyNFT.ClaimHistory[]",
          "name": "",
          "type": "tuple[]"
        }
      ],
      "stateMutability": "view",
      "type": "function"
    },
    {
      "inputs": [
        {
          "internalType": "uint256",
          "name": "tokenId",
          "type": "uint256"
        }
      ],
      "name": "getPolicyData",
      "outputs": [
        {
          "components": [
            {
              "internalType": "enum ChainSurePolicyNFT.PolicyType",
              "name": "policyType",
              "type": "uint8"
            },
            {
              "internalType": "enum ChainSurePolicyNFT.PolicyStatus",
              "name": "status",
              "type": "uint8"
            },
            {
              "internalType": "address",
              "name": "policyholder",
              "type": "address"
            },
            {
              "internalType": "address",
              "name": "beneficiary",
              "type": "address"
            },
            {
              "internalType": "uint256",
              "name": "coverageAmount",
              "type": "uint256"
            },
            {
              "internalType": "uint256",
              "name": "premium",
              "type": "uint256"
            },
            {
              "internalType": "uint256",
              "name": "creationDate",
              "type": "uint256"
            },
            {
              "internalType": "uint256",
              "name": "expiryDate",
              "type": "uint256"
            },
            {
              "internalType": "uint256",
              "name": "claimedAmount",
              "type": "uint256"
            },
            {
              "internalType": "string",
              "name": "coverageTerms",
              "type": "string"
            },
            {
              "internalType": "bytes32",
              "name": "ipfsHash",
              "type": "bytes32"
            }
          ],
          "internalType": "struct ChainSurePolicyNFT.PolicyData",
          "name": "",
          "type": "tuple"
        }
      ],
      "stateMutability": "view",
      "type": "function"
    },
    {
      "inputs": [
        {
          "internalType": "uint256",
          "name": "tokenId",
          "type": "uint256"
        }
      ],
      "name": "getRemainingCoverage",
      "outputs": [
        {
          "internalType": "uint256",
          "name": "",
          "type": "uint256"
        }
      ],
      "stateMutability": "view",
      "type": "function"
    },
    {
      "inputs": [
        {
          "internalType": "address",
          "name": "user",
          "type": "address"
        }
      ],
      "name": "getUserPolicies",
      "outputs": [
        {
          "internalType": "uint256[]",
          "name": "",
          "type": "uint256[]"
        }
      ],
      "stateMutability": "view",
      "type": "function"
    },
    {
      "inputs": [
        {
          "internalType": "address",
          "name": "owner",
          "type": "address"
        },
        {
          "internalType": "address",
          "name": "operator",
          "type": "address"
        }
      ],
      "name": "isApprovedForAll",
      "outputs": [
        {
          "internalType": "bool",
          "name": "",
          "type": "bool"
        }
      ],
      "stateMutability": "view",
      "type": "function"
    },
    {
      "inputs": [
        {
          "internalType": "uint256",
          "name": "tokenId",
          "type": "uint256"
        }
      ],
      "name": "isPolicyActive",
      "outputs": [
        {
          "internalType": "bool",
          "name": "",
          "type": "bool"
        }
      ],
      "stateMutability": "view",
      "type": "function"
    },
    {
      "inputs": [
        {
          "internalType": "enum ChainSurePolicyNFT.PolicyType",
          "name": "",
          "type": "uint8"
        }
      ],
      "name": "maxCoverageAmounts",
      "outputs": [
        {
          "internalType": "uint256",
          "name": "",
          "type": "uint256"
        }
      ],
      "stateMutability": "view",
      "type": "function"
    },
    {
      "inputs": [],
      "name": "name",
      "outputs": [
        {
          "internalType": "string",
          "name": "",
          "type": "string"
        }
      ],
      "stateMutability": "view",
      "type": "function"
    },
    {
      "inputs": [],
      "name": "owner",
      "outputs": [
        {
          "internalType": "address",
          "name": "",
          "type": "address"
        }
      ],
      "stateMutability": "view",
      "type": "function"
    },
    {
      "inputs": [
        {
          "internalType": "uint256",
          "name": "tokenId",
          "type": "uint256"
        }
      ],
      "name": "ownerOf",
      "outputs": [
        {
          "internalType": "address",
          "name": "",
          "type": "address"
        }
      ],
      "stateMutability": "view",
      "type": "function"
    },
    {
      "inputs": [],
      "name": "pause",
      "outputs": [],
      "stateMutability": "nonpayable",
      "type": "function"
    },
    {
      "inputs": [],
      "name": "paused",
      "outputs": [
        {
          "internalType": "bool",
          "name": "",
          "type": "bool"
        }
      ],
      "stateMutability": "view",
      "type": "function"
    },
    {
      "inputs": [],
      "name": "platformFee",
      "outputs": [
        {
          "internalType": "uint256",
          "name": "",
          "type": "uint256"
        }
      ],
      "stateMutability": "view",
      "type": "function"
    },
    {
      "inputs": [
        {
          "internalType": "uint256",
          "name": "",
          "type": "uint256"
        }
      ],
      "name": "policies",
      "outputs": [
        {
          "internalType": "enum ChainSurePolicyNFT.PolicyType",
          "name": "policyType",
          "type": "uint8"
        },
        {
          "internalType": "enum ChainSurePolicyNFT.PolicyStatus",
          "name": "status",
          "type": "uint8"
        },
        {
          "internalType": "address",
          "name": "policyholder",
          "type": "address"
        },
        {
          "internalType": "address",
          "name": "beneficiary",
          "type": "address"
        },
        {
          "internalType": "uint256",
          "name": "coverageAmount",
          "type": "uint256"
        },
        {
          "internalType": "uint256",
          "name": "premium",
          "type": "uint256"
        },
        {
          "internalType": "uint256",
          "name": "creationDate",
          "type": "uint256"
        },
        {
          "internalType": "uint256",
          "name": "expiryDate",
          "type": "uint256"
        },
        {
          "internalType": "uint256",
          "name": "claimedAmount",
          "type": "uint256"
        },
        {
          "internalType": "string",
          "name": "coverageTerms",
          "type": "string"
        },
        {
          "internalType": "bytes32",
          "name": "ipfsHash",
          "type": "bytes32"
        }
      ],
      "stateMutability": "view",
      "type": "function"
    },
    {
      "inputs": [
        {
          "internalType": "uint256",
          "name": "tokenId",
          "type": "uint256"
        },
        {
          "internalType": "uint256",
          "name": "claimAmount",
          "type": "uint256"
        },
        {
          "internalType": "address",
          "name": "claimant",
          "type": "address"
        },
        {
          "internalType": "uint256",
          "name": "claimId",
          "type": "uint256"
        }
      ],
      "name": "processClaim",
      "outputs": [],
      "stateMutability": "nonpayable",
      "type": "function"
    },
    {
      "inputs": [
        {
          "internalType": "uint256",
          "name": "tokenId",
          "type": "uint256"
        },
        {
          "internalType": "uint256",
          "name": "additionalTermLength",
          "type": "uint256"
        }
      ],
      "name": "renewPolicy",
      "outputs": [],
      "stateMutability": "nonpayable",
      "type": "function"
    },
    {
      "inputs": [],
      "name": "renounceOwnership",
      "outputs": [],
      "stateMutability": "nonpayable",
      "type": "function"
    },
    {
      "inputs": [
        {
          "internalType": "address",
          "name": "from",
          "type": "address"
        },
        {
          "internalType": "address",
          "name": "to",
          "type": "address"
        },
        {
          "internalType": "uint256",
          "name": "tokenId",
          "type": "uint256"
        }
      ],
      "name": "safeTransferFrom",
      "outputs": [],
      "stateMutability": "nonpayable",
      "type": "function"
    },
    {
      "inputs": [
        {
          "internalType": "address",
          "name": "from",
          "type": "address"
        },
        {
          "internalType": "address",
          "name": "to",
          "type": "address"
        },
        {
          "internalType": "uint256",
          "name": "tokenId",
          "type": "uint256"
        },
        {
          "internalType": "bytes",
          "name": "data",
          "type": "bytes"
        }
      ],
      "name": "safeTransferFrom",
      "outputs": [],
      "stateMutability": "nonpayable",
      "type": "function"
    },
    {
      "inputs": [
        {
          "internalType": "address",
          "name": "operator",
          "type": "address"
        },
        {
          "internalType": "bool",
          "name": "approved",
          "type": "bool"
        }
      ],
      "name": "setApprovalForAll",
      "outputs": [],
      "stateMutability": "nonpayable",
      "type": "function"
    },
    {
      "inputs": [],
      "name": "stablecoin",
      "outputs": [
        {
          "internalType": "contract ChainSureStablecoin",
          "name": "",
          "type": "address"
        }
      ],
      "stateMutability": "view",
      "type": "function"
    },
    {
      "inputs": [
        {
          "internalType": "bytes4",
          "name": "interfaceId",
          "type": "bytes4"
        }
      ],
      "name": "supportsInterface",
      "outputs": [
        {
          "internalType": "bool",
          "name": "",
          "type": "bool"
        }
      ],
      "stateMutability": "view",
      "type": "function"
    },
    {
      "inputs": [],
      "name": "symbol",
      "outputs": [
        {
          "internalType": "string",
          "name": "",
          "type": "string"
        }
      ],
      "stateMutability": "view",
      "type": "function"
    },
    {
      "inputs": [
        {
          "internalType": "uint256",
          "name": "tokenId",
          "type": "uint256"
        }
      ],
      "name": "tokenURI",
      "outputs": [
        {
          "internalType": "string",
          "name": "",
          "type": "string"
        }
      ],
      "stateMutability": "view",
      "type": "function"
    },
    {
      "inputs": [
        {
          "internalType": "address",
          "name": "from",
          "type": "address"
        },
        {
          "internalType": "address",
          "name": "to",
          "type": "address"
        },
        {
          "internalType": "uint256",
          "name": "tokenId",
          "type": "uint256"
        }
      ],
      "name": "transferFrom",
      "outputs": [],
      "stateMutability": "nonpayable",
      "type": "function"
    },
    {
      "inputs": [
        {
          "internalType": "address",
          "name": "newOwner",
          "type": "address"
        }
      ],
      "name": "transferOwnership",
      "outputs": [],
      "stateMutability": "nonpayable",
      "type": "function"
    },
    {
      "inputs": [],
      "name": "treasuryAddress",
      "outputs": [
        {
          "internalType": "address",
          "name": "",
          "type": "address"
        }
      ],
      "stateMutability": "view",
      "type": "function"
    },
    {
      "inputs": [],
      "name": "unpause",
      "outputs": [],
      "stateMutability": "nonpayable",
      "type": "function"
    },
    {
      "inputs": [
        {
          "internalType": "enum ChainSurePolicyNFT.PolicyType",
          "name": "policyType",
          "type": "uint8"
        },
        {
          "internalType": "uint256",
          "name": "newRate",
          "type": "uint256"
        }
      ],
      "name": "updateBasePremiumRate",
      "outputs": [],
      "stateMutability": "nonpayable",
      "type": "function"
    },
    {
      "inputs": [
        {
          "internalType": "uint256",
          "name": "tokenId",
          "type": "uint256"
        },
        {
          "internalType": "address",
          "name": "newBeneficiary",
          "type": "address"
        }
      ],
      "name": "updateBeneficiary",
      "outputs": [],
      "stateMutability": "nonpayable",
      "type": "function"
    },
    {
      "inputs": [
        {
          "internalType": "enum ChainSurePolicyNFT.PolicyType",
          "name": "policyType",
          "type": "uint8"
        },
        {
          "internalType": "uint256",
          "name": "newAmount",
          "type": "uint256"
        }
      ],
      "name": "updateMaxCoverageAmount",
      "outputs": [],
      "stateMutability": "nonpayable",
      "type": "function"
    },
    {
      "inputs": [
        {
          "internalType": "uint256",
          "name": "newFee",
          "type": "uint256"
        }
      ],
      "name": "updatePlatformFee",
      "outputs": [],
      "stateMutability": "nonpayable",
      "type": "function"
    },
    {
      "inputs": [
        {
          "internalType": "address",
          "name": "newTreasury",
          "type": "address"
        }
      ],
      "name": "updateTreasuryAddress",
      "outputs": [],
      "stateMutability": "nonpayable",
      "type": "function"
    },
    {
      "inputs": [
        {
          "internalType": "address",
          "name": "",
          "type": "address"
        },
        {
          "internalType": "uint256",
          "name": "",
          "type": "uint256"
        }
      ],
      "name": "userPolicies",
      "outputs": [
        {
          "internalType": "uint256",
          "name": "",
          "type": "uint256"
        }
      ],
      "stateMutability": "view",
      "type": "function"
    }
  ],
  "bytecode": "0x608060405260fa6010553480156200001657600080fd5b50604051620043103803806200431083398101604081905262000039916200044f565b6040518060400160405280601481526020017f436861696e5375726520506f6c696379204e4654000000000000000000000000815250604051806040016040528060088152602001674353504f4c49435960c01b8152508160009081620000a191906200052c565b506001620000b082826200052c565b505050620000cd620000c7620003dc60201b60201c565b620003e0565b6007805460ff60a01b19169055600980546001600160a01b039384166001600160a01b0319918216179091556011805492909316911617905560327f81955a0a11e65eac625c29e8882660bae4e165a75d72780094acae8ece9a29ee5560507ffd54ff1ed53f34a900b24c5ba64f85761163b5d82d98a47b9bd80e45466993c555601e7f10a81eed9d63d16face5e76357905348e6253d3394086026bb2bf2145d7cc2495560147f26b4a10d0f0b04925c23bd4480ee147c916e5e87a7d68206a533dad160ac81e25560647fafafe8948a4ed9d478b1e9a5780b119b5edd00ea7d07bc35bef7c814824eb94b5560787fa5049387d9cb649c59f4bda666105ba636c2a103d8e2b232ba4d125737cd2149556a084595161401484a0000007fe710864318d4a32f37d6ce54cb3fadbef648dd12d8dbdf53973564d56b7f881c556a0422ca8b0a00a4250000007fa7c5ba7114a813b50159add3a36832908dc83db71d0b9a24c2ad0f83be9582075569d3c21bcecceda10000007f9adb202b1492743bc00c81d33cdc6423fa8c79109027eb6a845391e8fc1f04815569152d02c7e14af68000007fe0283e559c29e31ee7f56467acc9dd307779c843a883aeeb3bf5c6128c908144556969e10de76676d08000007fa1d6913cd9e08c872be3e7525cca82e4fc0fc298a783f19022be725b19be685a556a295be96e640669720000007fb9bec7e2561f624fe753ff070f1599b306cbf59fafd4e8d5a8184a1ea1841bce55600f6020526301e133807ff4803e074bd026baaf6ed2e288c9515f68c72fb7216eebdd7cae1718a53ec3758190557f169f97de0d9a84d840042b17d3c6b9638b3d6fd9024c9eb0c7a306a17b49f88f81905562278d007fa74ba3945261e09fde15ba3db55005b205e61eeb4ad811ac0faa2b315bffeead557f45f76dafbbad695564362934e24d72eedc57f9fc1a65f39bca62176cc82968288190557f367ccd2d0ac16bf7110a5dffe0801fdc9452a95a1adb7e1a12fe97dd3e9a4edd81905560056000527f6bda57492eba051cb4a12a1e19df47c9755d78165341d4009b1d09b3f361620455620005f8565b3390565b600780546001600160a01b038381166001600160a01b0319831681179093556040519116919082907f8be0079c531659141344cd1fd0a4f28419497f9722a3daafe3b4186f6b6457e090600090a35050565b80516001600160a01b03811681146200044a57600080fd5b919050565b600080604083850312156200046357600080fd5b6200046e8362000432565b91506200047e6020840162000432565b90509250929050565b634e487b7160e01b600052604160045260246000fd5b600181811c90821680620004b257607f821691505b602082108103620004d357634e487b7160e01b600052602260045260246000fd5b50919050565b601f8211156200052757600081815260208120601f850160051c81016020861015620005025750805b601f850160051c820191505b8181101562000523578281556001016200050e565b5050505b505050565b81516001600160401b0381111562000548576200054862000487565b62000560816200055984546200049d565b84620004d9565b602080601f8311600181146200059857600084156200057f5750858301515b600019600386901b1c1916600185901b17855562000523565b600085815260208120601f198616915b82811015620005c957888601518255948401946001909101908401620005a8565b5085821015620005e85787850151600019600388901b60f8161c191681555b5050505050600190811b01905550565b613d0880620006086000396000f3fe608060405234801561001057600080fd5b50600436106102745760003560e01c8063715018a611610151578063bd8afa46116100c3578063d00496a011610087578063d00496a0146105ae578063d3b8cfe0146105ce578063d3e89483146105ee578063e985e9c514610618578063e9cbd82214610654578063f2fde38b1461066757600080fd5b8063bd8afa461461054f578063be242a5914610562578063c5f956af14610575578063c7cc262714610588578063c87b56dd1461059b57600080fd5b80638da5cb5b116101155780638da5cb5b146104dd5780638f216385146104ee57806395d89b411461050e578063a22cb46514610516578063aa0b598814610529578063b88d4fde1461053c57600080fd5b8063715018a614610454578063796ca2731461045c5780637a5402e9146104a2578063841e4561146104c25780638456cb59146104d557600080fd5b80633e8eb5a4116101ea57806351aa360a116101ae57806351aa360a146103ed5780635c975abb146104005780636352211e1461041257806366a7c3dc1461042557806369c1ca9f1461043857806370a082311461044157600080fd5b80633e8eb5a4146103995780633f4ba83a146103ac57806342842e0e146103b457806342966c68146103c757806351821891146103da57600080fd5b806319ac46141161023c57806319ac4614146103095780631f8b1ce41461032957806323b872dd1461035757806325ca30e51461036a57806326232a2e1461037d5780633d36adc51461038657600080fd5b806301ffc9a71461027957806306fdde03146102a1578063081812fc146102b6578063095ea7b3146102e157806319a62589146102f6575b600080fd5b61028c6102873660046131cd565b61067a565b60405190151581526020015b60405180910390f35b6102a961068b565b604051610298919061323a565b6102c96102c436600461324d565b61071d565b6040516001600160a01b039091168152602001610298565b6102f46102ef366004613282565b610744565b005b6102f46103043660046132ac565b61085e565b61031c6103173660046132e9565b610c68565b6040516102989190613304565b610349610337366004613357565b600d6020526000908152604090205481565b604051908152602001610298565b6102f4610365366004613372565b610cd4565b61034961037836600461343a565b610d06565b61034960105481565b610349610394366004613282565b6112db565b6102f46103a73660046134da565b61130c565b6102f4611425565b6102f46103c2366004613372565b611437565b6102f46103d536600461324d565b611452565b6103496103e8366004613506565b611483565b6103496103fb36600461324d565b6114df565b600754600160a01b900460ff1661028c565b6102c961042036600461324d565b611693565b6102f4610433366004613506565b6116f3565b61034961271081565b61034961044f3660046132e9565b611738565b6102f46117be565b61046f61046a366004613522565b6117d0565b604080519586526020860194909452928401919091526001600160a01b031660608301521515608082015260a001610298565b6104b56104b036600461324d565b61182b565b604051610298919061357e565b6102f46104d03660046132e9565b611a3a565b6102f4611acf565b6007546001600160a01b03166102c9565b6103496104fc366004613357565b600f6020526000908152604090205481565b6102a9611adf565b6102f4610524366004613647565b611aee565b6102f461053736600461324d565b611afd565b6102f461054a36600461367e565b611b6e565b61028c61055d36600461324d565b611ba6565b6102f4610570366004613522565b611d5d565b6011546102c9906001600160a01b031681565b6102f4610596366004613506565b6120fd565b6102a96105a936600461324d565b61211c565b6103496105bc366004613357565b600e6020526000908152604090205481565b6105e16105dc36600461324d565b612127565b60405161029891906136fa565b6106016105fc36600461324d565b6121f1565b6040516102989b9a99989796959493929190613773565b61028c6106263660046137f3565b6001600160a01b03918216600090815260056020908152604080832093909416825291909152205460ff1690565b6009546102c9906001600160a01b031681565b6102f46106753660046132e9565b6122e1565b600061068582612357565b92915050565b60606000805461069a9061381d565b80601f01602080910402602001604051908101604052809291908181526020018280546106c69061381d565b80156107135780601f106106e857610100808354040283529160200191610713565b820191906000526020600020905b8154815290600101906020018083116106f657829003601f168201915b5050505050905090565b60006107288261237c565b506000908152600460205260409020546001600160a01b031690565b600061074f82611693565b9050806001600160a01b0316836001600160a01b0316036107c15760405162461bcd60e51b815260206004820152602160248201527f4552433732313a20617070726f76616c20746f2063757272656e74206f776e656044820152603960f91b60648201526084015b60405180910390fd5b336001600160a01b03821614806107dd57506107dd8133610626565b61084f5760405162461bcd60e51b815260206004820152603d60248201527f4552433732313a20617070726f76652063616c6c6572206973206e6f7420746f60448201527f6b656e206f776e6572206f7220617070726f76656420666f7220616c6c00000060648201526084016107b8565b61085983836123cc565b505050565b61086661243a565b83600080828152600a6020526040902054610100900460ff16600381111561089057610890613544565b146108eb5760405162461bcd60e51b815260206004820152602560248201527f436861696e53757265506f6c6963794e46543a20706f6c696379206e6f742061604482015264637469766560d81b60648201526084016107b8565b6000818152600a60205260409020600501544211156109575760405162461bcd60e51b815260206004820152602260248201527f436861696e53757265506f6c6963794e46543a20706f6c696379206578706972604482015261195960f21b60648201526084016107b8565b61096085612494565b61097c5760405162461bcd60e51b81526004016107b890613857565b600084116109e65760405162461bcd60e51b815260206004820152603160248201527f436861696e53757265506f6c6963794e46543a20636c61696d20616d6f756e74604482015270206d75737420626520706f73697469766560781b60648201526084016107b8565b6000858152600a6020526040902060028101546006820154610a099087906138b6565b1115610a745760405162461bcd60e51b815260206004820152603460248201527f436861696e53757265506f6c6963794e46543a20636c61696d20657863656564604482015273732072656d61696e696e6720636f76657261676560601b60648201526084016107b8565b84816006016000828254610a8891906138b6565b90915550506002810154600682015410610aaa57805461ff0019166102001781555b6000868152600b60209081526040808320815160a0810183528781528084018a8152428285019081526001600160a01b03808c166060850190815260016080860181815287548083018955978b529890992094516004968702909501948555925197840197909755516002830155516003909101805494511515600160a01b026001600160a81b03199095169186169190911793909317909255600954905163a9059cbb60e01b815292169163a9059cbb91610b7e9188918a91016001600160a01b03929092168252602082015260400190565b6020604051808303816000875af1158015610b9d573d6000803e3d6000fd5b505050506040513d601f19601f82011682018060405250810190610bc191906138c9565b610c1d5760405162461bcd60e51b815260206004820152602760248201527f436861696e53757265506f6c6963794e46543a20636c61696d207061796f75746044820152660819985a5b195960ca1b60648201526084016107b8565b604080518681526001600160a01b038616602082015287917fa73579c62f4d8f666330320bb6cc055e54228d689ffe0eb55b08231b6b18d8e7910160405180910390a2505050505050565b6001600160a01b0381166000908152600c6020908152604091829020805483518184028101840190945280845260609392830182828015610cc857602002820191906000526020600020905b815481526020019060010190808311610cb4575b50505050509050919050565b610cdf335b826124b1565b610cfb5760405162461bcd60e51b81526004016107b8906138e6565b61085983838361252f565b6000610d106126a0565b6001600160a01b038816610d745760405162461bcd60e51b815260206004820152602560248201527f436861696e53757265506f6c6963794e46543a20696e76616c696420726563696044820152641c1a595b9d60da1b60648201526084016107b8565b60008611610de15760405162461bcd60e51b815260206004820152603460248201527f436861696e53757265506f6c6963794e46543a20636f76657261676520616d6f604482015273756e74206d75737420626520706f73697469766560601b60648201526084016107b8565b600e6000886005811115610df757610df7613544565b6005811115610e0857610e08613544565b815260200190815260200160002054861115610e7b5760405162461bcd60e51b815260206004820152602c60248201527f436861696e53757265506f6c6963794e46543a20636f7665726167652065786360448201526b65656473206d6178696d756d60a01b60648201526084016107b8565b6000610e8660085490565b9050610e96600880546001019055565b6000610ea28989611483565b90506000808511610ee857600f60008b6005811115610ec357610ec3613544565b6005811115610ed457610ed4613544565b815260200190815260200160002054610eea565b845b90506000610ef882426138b6565b90506040518061016001604052808c6005811115610f1857610f18613544565b8152602001600081526001600160a01b03808f1660208301526040909101908b16610f43578d610f45565b8a5b6001600160a01b0316815260208082018d9052604080830187905242606084015260808301859052600060a0840181905260c084018d905260e09093018b9052878352600a909152902081518154829060ff19166001836005811115610fad57610fad613544565b021790555060208201518154829061ff001916610100836003811115610fd557610fd5613544565b02179055506040820151815462010000600160b01b031916620100006001600160a01b039283160217825560608301516001830180546001600160a01b031916919092161790556080820151600282015560a0820151600382015560c0820151600482015560e08201516005820155610100820151600682015561012082015160078201906110649082613981565b5061014091909101516008909101556001600160a01b038c166000908152600c602090815260408220805460018101825590835290822001859055601054612710906110b09086613a41565b6110ba9190613a58565b905060006110c88286613a7a565b6009546040516323b872dd60e01b81529192506001600160a01b0316906323b872dd906110fd90339030908690600401613a8d565b6020604051808303816000875af115801561111c573d6000803e3d6000fd5b505050506040513d601f19601f8201168201806040525081019061114091906138c9565b61119f5760405162461bcd60e51b815260206004820152602a60248201527f436861696e53757265506f6c6963794e46543a207072656d69756d207061796d604482015269195b9d0819985a5b195960b21b60648201526084016107b8565b811561123d576009546011546040516323b872dd60e01b81526001600160a01b03928316926323b872dd926111de923392909116908790600401613a8d565b6020604051808303816000875af11580156111fd573d6000803e3d6000fd5b505050506040513d601f19601f8201168201806040525081019061122191906138c9565b61123d5760405162461bcd60e51b81526004016107b890613ab1565b6112478e876126ed565b8d6001600160a01b0316867f4922cc4ba5af57c06c26d02e17d09964049efe7919e9bba1118cb09aa33cfc988f8f89886040516112879493929190613b00565b60405180910390a36040805186815233602082015287917f8f76fe8d0973cc7ae276e11e3ab67dcae6a39c0f1dd6b9a4b34d73da8c18b1c8910160405180910390a250939c9b505050505050505050505050565b600c60205281600052604060002081815481106112f757600080fd5b90600052602060002001600091509150505481565b813361131782611693565b6001600160a01b03161461133d5760405162461bcd60e51b81526004016107b890613b29565b61134683612494565b6113625760405162461bcd60e51b81526004016107b890613857565b6001600160a01b0382166113c85760405162461bcd60e51b815260206004820152602760248201527f436861696e53757265506f6c6963794e46543a20696e76616c69642062656e656044820152666669636961727960c81b60648201526084016107b8565b6000838152600a602052604080822060010180546001600160a01b0319166001600160a01b0386169081179091559051909185917fa6651cd315e1b1d3d439de42416a9f109ebffaa21aed0412debe15da701f44129190a3505050565b61142d61243a565b611435612707565b565b61085983838360405180602001604052806000815250611b6e565b61145b33610cd9565b6114775760405162461bcd60e51b81526004016107b8906138e6565b6114808161275c565b50565b600080600d600085600581111561149c5761149c613544565b60058111156114ad576114ad613544565b81526020019081526020016000205490506103e881846114cd9190613a41565b6114d79190613a58565b949350505050565b60006114ea82612494565b6115065760405162461bcd60e51b81526004016107b890613857565b6000828152600a6020526040808220815161016081019092528054829060ff16600581111561153757611537613544565b600581111561154857611548613544565b81528154602090910190610100900460ff16600381111561156b5761156b613544565b600381111561157c5761157c613544565b815281546001600160a01b03620100009091048116602083015260018301541660408201526002820154606082015260038201546080820152600482015460a0820152600582015460c0820152600682015460e0820152600782018054610100909201916115e99061381d565b80601f01602080910402602001604051908101604052809291908181526020018280546116159061381d565b80156116625780601f1061163757610100808354040283529160200191611662565b820191906000526020600020905b81548152906001019060200180831161164557829003601f168201915b505050505081526020016008820154815250509050806101000151816080015161168c9190613a7a565b9392505050565b6000818152600260205260408120546001600160a01b0316806106855760405162461bcd60e51b8152602060048201526018602482015277115490cdcc8c4e881a5b9d985b1a59081d1bdad95b88125160421b60448201526064016107b8565b6116fb61243a565b80600d600084600581111561171257611712613544565b600581111561172357611723613544565b81526020810191909152604001600020555050565b60006001600160a01b0382166117a25760405162461bcd60e51b815260206004820152602960248201527f4552433732313a2061646472657373207a65726f206973206e6f7420612076616044820152683634b21037bbb732b960b91b60648201526084016107b8565b506001600160a01b031660009081526003602052604090205490565b6117c661243a565b6114356000612765565b600b60205281600052604060002081815481106117ec57600080fd5b6000918252602090912060049091020180546001820154600283015460039093015491945092506001600160a01b03811690600160a01b900460ff1685565b61189e60408051610160810190915280600081526020016000815260200160006001600160a01b0316815260200160006001600160a01b03168152602001600081526020016000815260200160008152602001600081526020016000815260200160608152602001600080191681525090565b6118a782612494565b6118c35760405162461bcd60e51b81526004016107b890613857565b6000828152600a602052604090819020815161016081019092528054829060ff1660058111156118f5576118f5613544565b600581111561190657611906613544565b81528154602090910190610100900460ff16600381111561192957611929613544565b600381111561193a5761193a613544565b815281546001600160a01b03620100009091048116602083015260018301541660408201526002820154606082015260038201546080820152600482015460a0820152600582015460c0820152600682015460e0820152600782018054610100909201916119a79061381d565b80601f01602080910402602001604051908101604052809291908181526020018280546119d39061381d565b8015611a205780601f106119f557610100808354040283529160200191611a20565b820191906000526020600020905b815481529060010190602001808311611a0357829003601f168201915b505050505081526020016008820154815250509050919050565b611a4261243a565b6001600160a01b038116611aad5760405162461bcd60e51b815260206004820152602c60248201527f436861696e53757265506f6c6963794e46543a20696e76616c6964207472656160448201526b73757279206164647265737360a01b60648201526084016107b8565b601180546001600160a01b0319166001600160a01b0392909216919091179055565b611ad761243a565b6114356127b7565b60606001805461069a9061381d565b611af93383836127fa565b5050565b611b0561243a565b6103e8811115611b695760405162461bcd60e51b815260206004820152602960248201527f436861696e53757265506f6c6963794e46543a206665652063616e6e6f74206560448201526878636565642031302560b81b60648201526084016107b8565b601055565b611b7833836124b1565b611b945760405162461bcd60e51b81526004016107b8906138e6565b611ba0848484846128c8565b50505050565b6000611bb182612494565b611bbd57506000919050565b6000828152600a6020526040808220815161016081019092528054829060ff166005811115611bee57611bee613544565b6005811115611bff57611bff613544565b81528154602090910190610100900460ff166003811115611c2257611c22613544565b6003811115611c3357611c33613544565b815281546001600160a01b03620100009091048116602083015260018301541660408201526002820154606082015260038201546080820152600482015460a0820152600582015460c0820152600682015460e082015260078201805461010090920191611ca09061381d565b80601f0160208091040260200160405190810160405280929190818152602001828054611ccc9061381d565b8015611d195780601f10611cee57610100808354040283529160200191611d19565b820191906000526020600020905b815481529060010190602001808311611cfc57829003601f168201915b5050509183525050600891909101546020909101529050600081602001516003811115611d4857611d48613544565b14801561168c575060e0015142111592915050565b8133611d6882611693565b6001600160a01b031614611d8e5760405162461bcd60e51b81526004016107b890613b29565b611d966126a0565b611d9f83612494565b611dbb5760405162461bcd60e51b81526004016107b890613857565b60008211611e245760405162461bcd60e51b815260206004820152603060248201527f436861696e53757265506f6c6963794e46543a207465726d206c656e6774682060448201526f6d75737420626520706f73697469766560801b60648201526084016107b8565b6000838152600a602052604081208054909190600f90829060ff166005811115611e5057611e50613544565b6005811115611e6157611e61613544565b815260200190815260200160002054848360030154611e809190613a41565b611e8a9190613a58565b9050600061271060105483611e9f9190613a41565b611ea99190613a58565b90506000611eb78284613a7a565b6009546040516323b872dd60e01b81529192506001600160a01b0316906323b872dd90611eec90339030908690600401613a8d565b6020604051808303816000875af1158015611f0b573d6000803e3d6000fd5b505050506040513d601f19601f82011682018060405250810190611f2f91906138c9565b611f965760405162461bcd60e51b815260206004820152603260248201527f436861696e53757265506f6c6963794e46543a2072656e6577616c207072656d6044820152711a5d5b481c185e5b595b9d0819985a5b195960721b60648201526084016107b8565b8115612034576009546011546040516323b872dd60e01b81526001600160a01b03928316926323b872dd92611fd5923392909116908790600401613a8d565b6020604051808303816000875af1158015611ff4573d6000803e3d6000fd5b505050506040513d601f19601f8201168201806040525081019061201891906138c9565b6120345760405162461bcd60e51b81526004016107b890613ab1565b8584600501600082825461204891906138b6565b90915550600190508454610100900460ff16600381111561206b5761206b613544565b0361207a57835461ff00191684555b6005840154604080519182526020820185905288917f27557eeb2b686b7d195b00d8aab57293395b294e3a130ad93f3ae9a4564d3840910160405180910390a26040805184815233602082015288917f8f76fe8d0973cc7ae276e11e3ab67dcae6a39c0f1dd6b9a4b34d73da8c18b1c8910160405180910390a250505050505050565b61210561243a565b80600e600084600581111561171257611712613544565b6060610685826128fb565b606061213282612494565b61214e5760405162461bcd60e51b81526004016107b890613857565b6000828152600b6020908152604080832080548251818502810185019093528083529193909284015b828210156121e65760008481526020908190206040805160a081018252600486029092018054835260018082015484860152600282015492840192909252600301546001600160a01b0381166060840152600160a01b900460ff16151560808301529083529092019101612177565b505050509050919050565b600a602052600090815260409020805460018201546002830154600384015460048501546005860154600687015460078801805460ff808a169a6101008b04909116996001600160a01b03620100009091048116991697969594939290916122589061381d565b80601f01602080910402602001604051908101604052809291908181526020018280546122849061381d565b80156122d15780601f106122a6576101008083540402835291602001916122d1565b820191906000526020600020905b8154815290600101906020018083116122b457829003601f168201915b505050505090806008015490508b565b6122e961243a565b6001600160a01b03811661234e5760405162461bcd60e51b815260206004820152602660248201527f4f776e61626c653a206e6577206f776e657220697320746865207a65726f206160448201526564647265737360d01b60648201526084016107b8565b61148081612765565b60006001600160e01b03198216632483248360e11b1480610685575061068582612a03565b61238581612494565b6114805760405162461bcd60e51b8152602060048201526018602482015277115490cdcc8c4e881a5b9d985b1a59081d1bdad95b88125160421b60448201526064016107b8565b600081815260046020526040902080546001600160a01b0319166001600160a01b038416908117909155819061240182611693565b6001600160a01b03167f8c5be1e5ebec7d5bd14f71427d1e84f3dd0314c0f7b2291e5b200ac8c7c3b92560405160405180910390a45050565b6007546001600160a01b031633146114355760405162461bcd60e51b815260206004820181905260248201527f4f776e61626c653a2063616c6c6572206973206e6f7420746865206f776e657260448201526064016107b8565b6000908152600260205260409020546001600160a01b0316151590565b6000806124bd83611693565b9050806001600160a01b0316846001600160a01b0316148061250457506001600160a01b0380821660009081526005602090815260408083209388168352929052205460ff165b806114d75750836001600160a01b031661251d8461071d565b6001600160a01b031614949350505050565b826001600160a01b031661254282611693565b6001600160a01b0316146125685760405162461bcd60e51b81526004016107b890613b6d565b6001600160a01b0382166125ca5760405162461bcd60e51b8152602060048201526024808201527f4552433732313a207472616e7366657220746f20746865207a65726f206164646044820152637265737360e01b60648201526084016107b8565b6125d78383836001612a53565b826001600160a01b03166125ea82611693565b6001600160a01b0316146126105760405162461bcd60e51b81526004016107b890613b6d565b600081815260046020908152604080832080546001600160a01b03199081169091556001600160a01b0387811680865260038552838620805460001901905590871680865283862080546001019055868652600290945282852080549092168417909155905184937fddf252ad1be2c89b69c2b068fc378daa952ba7f163c4a11628f55a4df523b3ef91a4505050565b600754600160a01b900460ff16156114355760405162461bcd60e51b815260206004820152601060248201526f14185d5cd8589b194e881c185d5cd95960821b60448201526064016107b8565b611af9828260405180602001604052806000815250612ba9565b61270f612bdc565b6007805460ff60a01b191690557f5db9ee0a495bf2e6ff9c91a7834c1ba4fdd244a5e8aa4e537bd38aeae4b073aa335b6040516001600160a01b03909116815260200160405180910390a1565b61148081612c2c565b600780546001600160a01b038381166001600160a01b0319831681179093556040519116919082907f8be0079c531659141344cd1fd0a4f28419497f9722a3daafe3b4186f6b6457e090600090a35050565b6127bf6126a0565b6007805460ff60a01b1916600160a01b1790557f62e78cea01bee320cd4e420270b5ea74000d11b0c9f74754ebdbfc544b05a25861273f3390565b816001600160a01b0316836001600160a01b03160361285b5760405162461bcd60e51b815260206004820152601960248201527f4552433732313a20617070726f766520746f2063616c6c65720000000000000060448201526064016107b8565b6001600160a01b03838116600081815260056020908152604080832094871680845294825291829020805460ff191686151590811790915591519182527f17307eab39ab6107e8899845ad3d59bd9653f200f220920489ca2b5937696c31910160405180910390a3505050565b6128d384848461252f565b6128df84848484612c6c565b611ba05760405162461bcd60e51b81526004016107b890613bb2565b60606129068261237c565b6000828152600660205260408120805461291f9061381d565b80601f016020809104026020016040519081016040528092919081815260200182805461294b9061381d565b80156129985780601f1061296d57610100808354040283529160200191612998565b820191906000526020600020905b81548152906001019060200180831161297b57829003601f168201915b5050505050905060006129b660408051602081019091526000815290565b905080516000036129c8575092915050565b8151156129fa5780826040516020016129e2929190613c04565b60405160208183030381529060405292505050919050565b6114d784612d6d565b60006001600160e01b031982166380ac58cd60e01b1480612a3457506001600160e01b03198216635b5e139f60e01b145b8061068557506301ffc9a760e01b6001600160e01b0319831614610685565b612a5b6126a0565b6001600160a01b03841615801590612a7b57506001600160a01b03831615155b15611ba0576001600160a01b0384166000908152600c60205260408120905b8154811015612b4e5783828281548110612ab657612ab6613c33565b906000526020600020015403612b3c5781548290612ad690600190613a7a565b81548110612ae657612ae6613c33565b9060005260206000200154828281548110612b0357612b03613c33565b906000526020600020018190555081805480612b2157612b21613c49565b60019003818190600052602060002001600090559055612b4e565b80612b4681613c5f565b915050612a9a565b5050506001600160a01b03919091166000818152600c60209081526040808320805460018101825590845282842001859055938252600a905291909120805462010000600160b01b0319166201000090920291909117905550565b612bb38383612de0565b612bc06000848484612c6c565b6108595760405162461bcd60e51b81526004016107b890613bb2565b600754600160a01b900460ff166114355760405162461bcd60e51b815260206004820152601460248201527314185d5cd8589b194e881b9bdd081c185d5cd95960621b60448201526064016107b8565b612c3581612f5b565b60008181526006602052604090208054612c4e9061381d565b15905061148057600081815260066020526040812061148091613169565b60006001600160a01b0384163b15612d6257604051630a85bd0160e11b81526001600160a01b0385169063150b7a0290612cb0903390899088908890600401613c78565b6020604051808303816000875af1925050508015612ceb575060408051601f3d908101601f19168201909252612ce891810190613cb5565b60015b612d48573d808015612d19576040519150601f19603f3d011682016040523d82523d6000602084013e612d1e565b606091505b508051600003612d405760405162461bcd60e51b81526004016107b890613bb2565b805181602001fd5b6001600160e01b031916630a85bd0160e11b1490506114d7565b506001949350505050565b6060612d788261237c565b6000612d8f60408051602081019091526000815290565b90506000815111612daf576040518060200160405280600081525061168c565b80612db984612ffe565b604051602001612dca929190613c04565b6040516020818303038152906040529392505050565b6001600160a01b038216612e365760405162461bcd60e51b815260206004820181905260248201527f4552433732313a206d696e7420746f20746865207a65726f206164647265737360448201526064016107b8565b612e3f81612494565b15612e8c5760405162461bcd60e51b815260206004820152601c60248201527f4552433732313a20746f6b656e20616c7265616479206d696e7465640000000060448201526064016107b8565b612e9a600083836001612a53565b612ea381612494565b15612ef05760405162461bcd60e51b815260206004820152601c60248201527f4552433732313a20746f6b656e20616c7265616479206d696e7465640000000060448201526064016107b8565b6001600160a01b038216600081815260036020908152604080832080546001019055848352600290915280822080546001600160a01b0319168417905551839291907fddf252ad1be2c89b69c2b068fc378daa952ba7f163c4a11628f55a4df523b3ef908290a45050565b6000612f6682611693565b9050612f76816000846001612a53565b612f7f82611693565b600083815260046020908152604080832080546001600160a01b03199081169091556001600160a01b0385168085526003845282852080546000190190558785526002909352818420805490911690555192935084927fddf252ad1be2c89b69c2b068fc378daa952ba7f163c4a11628f55a4df523b3ef908390a45050565b6060600061300b83613091565b600101905060008167ffffffffffffffff81111561302b5761302b6133ae565b6040519080825280601f01601f191660200182016040528015613055576020820181803683370190505b5090508181016020015b600019016f181899199a1a9b1b9c1cb0b131b232b360811b600a86061a8153600a850494508461305f57509392505050565b60008072184f03e93ff9f4daa797ed6e38ed64bf6a1f0160401b83106130d05772184f03e93ff9f4daa797ed6e38ed64bf6a1f0160401b830492506040015b6d04ee2d6d415b85acef810000000083106130fc576d04ee2d6d415b85acef8100000000830492506020015b662386f26fc10000831061311a57662386f26fc10000830492506010015b6305f5e1008310613132576305f5e100830492506008015b612710831061314657612710830492506004015b60648310613158576064830492506002015b600a83106106855760010192915050565b5080546131759061381d565b6000825580601f10613185575050565b601f01602090049060005260206000209081019061148091905b808211156131b3576000815560010161319f565b5090565b6001600160e01b03198116811461148057600080fd5b6000602082840312156131df57600080fd5b813561168c816131b7565b60005b838110156132055781810151838201526020016131ed565b50506000910152565b600081518084526132268160208601602086016131ea565b601f01601f19169290920160200192915050565b60208152600061168c602083018461320e565b60006020828403121561325f57600080fd5b5035919050565b80356001600160a01b038116811461327d57600080fd5b919050565b6000806040838503121561329557600080fd5b61329e83613266565b946020939093013593505050565b600080600080608085870312156132c257600080fd5b84359350602085013592506132d960408601613266565b9396929550929360600135925050565b6000602082840312156132fb57600080fd5b61168c82613266565b6020808252825182820181905260009190848201906040850190845b8181101561333c57835183529284019291840191600101613320565b50909695505050505050565b80356006811061327d57600080fd5b60006020828403121561336957600080fd5b61168c82613348565b60008060006060848603121561338757600080fd5b61339084613266565b925061339e60208501613266565b9150604084013590509250925092565b634e487b7160e01b600052604160045260246000fd5b600067ffffffffffffffff808411156133df576133df6133ae565b604051601f8501601f19908116603f01168101908282118183101715613407576134076133ae565b8160405280935085815286868601111561342057600080fd5b858560208301376000602087830101525050509392505050565b600080600080600080600060e0888a03121561345557600080fd5b61345e88613266565b965061346c60208901613348565b95506040880135945061348160608901613266565b9350608088013567ffffffffffffffff81111561349d57600080fd5b8801601f81018a136134ae57600080fd5b6134bd8a8235602084016133c4565b93505060a0880135915060c0880135905092959891949750929550565b600080604083850312156134ed57600080fd5b823591506134fd60208401613266565b90509250929050565b6000806040838503121561351957600080fd5b61329e83613348565b6000806040838503121561353557600080fd5b50508035926020909101359150565b634e487b7160e01b600052602160045260246000fd5b6006811061356a5761356a613544565b9052565b6004811061356a5761356a613544565b6020815261359060208201835161355a565b600060208301516135a4604084018261356e565b5060408301516001600160a01b03811660608401525060608301516001600160a01b038116608084015250608083015160a083015260a083015160c083015260c083015160e083015260e0830151610100818185015280850151915050610120818185015280850151915050610160610140818186015261362961018086018461320e565b9501519301929092525090919050565b801515811461148057600080fd5b6000806040838503121561365a57600080fd5b61366383613266565b9150602083013561367381613639565b809150509250929050565b6000806000806080858703121561369457600080fd5b61369d85613266565b93506136ab60208601613266565b925060408501359150606085013567ffffffffffffffff8111156136ce57600080fd5b8501601f810187136136df57600080fd5b6136ee878235602084016133c4565b91505092959194509250565b602080825282518282018190526000919060409081850190868401855b8281101561376657815180518552868101518786015285810151868601526060808201516001600160a01b03169086015260809081015115159085015260a09093019290850190600101613717565b5091979650505050505050565b6000610160613782838f61355a565b61378f602084018e61356e565b60018060a01b03808d166040850152808c166060850152508960808401528860a08401528760c08401528660e084015285610100840152806101208401526137d98184018661320e565b915050826101408301529c9b505050505050505050505050565b6000806040838503121561380657600080fd5b61380f83613266565b91506134fd60208401613266565b600181811c9082168061383157607f821691505b60208210810361385157634e487b7160e01b600052602260045260246000fd5b50919050565b60208082526029908201527f436861696e53757265506f6c6963794e46543a20706f6c69637920646f6573206040820152681b9bdd08195e1a5cdd60ba1b606082015260800190565b634e487b7160e01b600052601160045260246000fd5b80820180821115610685576106856138a0565b6000602082840312156138db57600080fd5b815161168c81613639565b6020808252602d908201527f4552433732313a2063616c6c6572206973206e6f7420746f6b656e206f776e6560408201526c1c881bdc88185c1c1c9bdd9959609a1b606082015260800190565b601f82111561085957600081815260208120601f850160051c8101602086101561395a5750805b601f850160051c820191505b8181101561397957828155600101613966565b505050505050565b815167ffffffffffffffff81111561399b5761399b6133ae565b6139af816139a9845461381d565b84613933565b602080601f8311600181146139e457600084156139cc5750858301515b600019600386901b1c1916600185901b178555613979565b600085815260208120601f198616915b82811015613a13578886015182559484019460019091019084016139f4565b5085821015613a315787850151600019600388901b60f8161c191681555b5050505050600190811b01905550565b8082028115828204841417610685576106856138a0565b600082613a7557634e487b7160e01b600052601260045260246000fd5b500490565b81810381811115610685576106856138a0565b6001600160a01b039384168152919092166020820152604081019190915260600190565b6020808252602f908201527f436861696e53757265506f6c6963794e46543a20706c6174666f726d2066656560408201526e081c185e5b595b9d0819985a5b1959608a1b606082015260800190565b60808101613b0e828761355a565b84602083015283604083015282606083015295945050505050565b60208082526024908201527f436861696e53757265506f6c6963794e46543a206e6f7420706f6c696379206f6040820152633bb732b960e11b606082015260800190565b60208082526025908201527f4552433732313a207472616e736665722066726f6d20696e636f72726563742060408201526437bbb732b960d91b606082015260800190565b60208082526032908201527f4552433732313a207472616e7366657220746f206e6f6e20455243373231526560408201527131b2b4bb32b91034b6b83632b6b2b73a32b960711b606082015260800190565b60008351613c168184602088016131ea565b835190830190613c2a8183602088016131ea565b01949350505050565b634e487b7160e01b600052603260045260246000fd5b634e487b7160e01b600052603160045260246000fd5b600060018201613c7157613c716138a0565b5060010190565b6001600160a01b0385811682528416602082015260408101839052608060608201819052600090613cab9083018461320e565b9695505050505050565b600060208284031215613cc757600080fd5b815161168c816131b756fea26469706673582212208117e03e9f965c15fa8dd645345325a55128b21d96dd030b334a229fa06a946564736f6c63430008140033",
  "linkReferences": {},
  "deployedLinkReferences": {}
}