{
  "_format": "hh-sol-artifact-1",
  "contractName": "ChainSureGovernance",
  "sourceName": "contracts/ChainSureGovernance.sol",
  "abi": [
    {
      "inputs": [
        {
          "internalType": "address",
          "name": "_governanceToken",
          "type": "address"
        },
        {
          "internalType": "address",
          "name": "_policyNFT",
          "type": "address"
        },
        {
          "internalType": "address",
          "name": "_claimsEngine",
          "type": "address"
        },
        {
          "internalType": "address",
          "name": "_surplusDistributor",
          "type": "address"
        },
        {
          "internalType": "address",
          "name": "_guardian",
          "type": "address"
        }
      ],
      "stateMutability": "nonpayable",
      "type": "constructor"
    },
    {
      "anonymous": false,
      "inputs": [
        {
          "indexed": true,
          "internalType": "address",
          "name": "previousOwner",
          "type": "address"
        },
        {
          "indexed": true,
          "internalType": "address",
          "name": "newOwner",
          "type": "address"
        }
      ],
      "name": "OwnershipTransferred",
      "type": "event"
    },
    {
      "anonymous": false,
      "inputs": [
        {
          "indexed": false,
          "internalType": "address",
          "name": "account",
          "type": "address"
        }
      ],
      "name": "Paused",
      "type": "event"
    },
    {
      "anonymous": false,
      "inputs": [
        {
          "indexed": true,
          "internalType": "uint256",
          "name": "proposalId",
          "type": "uint256"
        },
        {
          "indexed": false,
          "internalType": "string",
          "name": "reason",
          "type": "string"
        }
      ],
      "name": "ProposalCancelled",
      "type": "event"
    },
    {
      "anonymous": false,
      "inputs": [
        {
          "indexed": true,
          "internalType": "uint256",
          "name": "proposalId",
          "type": "uint256"
        },
        {
          "indexed": true,
          "internalType": "address",
          "name": "proposer",
          "type": "address"
        },
        {
          "indexed": false,
          "internalType": "enum ChainSureGovernance.ProposalType",
          "name": "proposalType",
          "type": "uint8"
        },
        {
          "indexed": false,
          "internalType": "string",
          "name": "description",
          "type": "string"
        },
        {
          "indexed": false,
          "internalType": "uint256",
          "name": "votingStart",
          "type": "uint256"
        },
        {
          "indexed": false,
          "internalType": "uint256",
          "name": "votingEnd",
          "type": "uint256"
        }
      ],
      "name": "ProposalCreated",
      "type": "event"
    },
    {
      "anonymous": false,
      "inputs": [
        {
          "indexed": true,
          "internalType": "uint256",
          "name": "proposalId",
          "type": "uint256"
        },
        {
          "indexed": false,
          "internalType": "bool",
          "name": "successful",
          "type": "bool"
        }
      ],
      "name": "ProposalExecuted",
      "type": "event"
    },
    {
      "anonymous": false,
      "inputs": [
        {
          "indexed": false,
          "internalType": "uint256",
          "name": "oldQuorum",
          "type": "uint256"
        },
        {
          "indexed": false,
          "internalType": "uint256",
          "name": "newQuorum",
          "type": "uint256"
        }
      ],
      "name": "QuorumUpdated",
      "type": "event"
    },
    {
      "anonymous": false,
      "inputs": [
        {
          "indexed": false,
          "internalType": "address",
          "name": "account",
          "type": "address"
        }
      ],
      "name": "Unpaused",
      "type": "event"
    },
    {
      "anonymous": false,
      "inputs": [
        {
          "indexed": true,
          "internalType": "uint256",
          "name": "proposalId",
          "type": "uint256"
        },
        {
          "indexed": true,
          "internalType": "address",
          "name": "voter",
          "type": "address"
        },
        {
          "indexed": false,
          "internalType": "bool",
          "name": "support",
          "type": "bool"
        },
        {
          "indexed": false,
          "internalType": "uint256",
          "name": "votes",
          "type": "uint256"
        },
        {
          "indexed": false,
          "internalType": "string",
          "name": "reason",
          "type": "string"
        }
      ],
      "name": "VoteCast",
      "type": "event"
    },
    {
      "anonymous": false,
      "inputs": [
        {
          "indexed": false,
          "internalType": "uint256",
          "name": "oldPeriod",
          "type": "uint256"
        },
        {
          "indexed": false,
          "internalType": "uint256",
          "name": "newPeriod",
          "type": "uint256"
        }
      ],
      "name": "VotingPeriodUpdated",
      "type": "event"
    },
    {
      "inputs": [
        {
          "internalType": "address",
          "name": "governor",
          "type": "address"
        }
      ],
      "name": "addEmergencyGovernor",
      "outputs": [],
      "stateMutability": "nonpayable",
      "type": "function"
    },
    {
      "inputs": [
        {
          "internalType": "uint256",
          "name": "proposalId",
          "type": "uint256"
        },
        {
          "internalType": "string",
          "name": "reason",
          "type": "string"
        }
      ],
      "name": "cancel",
      "outputs": [],
      "stateMutability": "nonpayable",
      "type": "function"
    },
    {
      "inputs": [
        {
          "internalType": "uint256",
          "name": "proposalId",
          "type": "uint256"
        },
        {
          "internalType": "bool",
          "name": "support",
          "type": "bool"
        },
        {
          "internalType": "string",
          "name": "reason",
          "type": "string"
        }
      ],
      "name": "castVote",
      "outputs": [],
      "stateMutability": "nonpayable",
      "type": "function"
    },
    {
      "inputs": [
        {
          "internalType": "uint256",
          "name": "proposalId",
          "type": "uint256"
        },
        {
          "internalType": "bool",
          "name": "support",
          "type": "bool"
        },
        {
          "internalType": "string",
          "name": "reason",
          "type": "string"
        },
        {
          "internalType": "uint8",
          "name": "v",
          "type": "uint8"
        },
        {
          "internalType": "bytes32",
          "name": "r",
          "type": "bytes32"
        },
        {
          "internalType": "bytes32",
          "name": "s",
          "type": "bytes32"
        }
      ],
      "name": "castVoteBySig",
      "outputs": [],
      "stateMutability": "nonpayable",
      "type": "function"
    },
    {
      "inputs": [],
      "name": "claimsEngine",
      "outputs": [
        {
          "internalType": "contract ChainSureClaimsEngine",
          "name": "",
          "type": "address"
        }
      ],
      "stateMutability": "view",
      "type": "function"
    },
    {
      "inputs": [
        {
          "internalType": "address",
          "name": "",
          "type": "address"
        }
      ],
      "name": "emergencyGovernors",
      "outputs": [
        {
          "internalType": "bool",
          "name": "",
          "type": "bool"
        }
      ],
      "stateMutability": "view",
      "type": "function"
    },
    {
      "inputs": [],
      "name": "emergencyPause",
      "outputs": [],
      "stateMutability": "nonpayable",
      "type": "function"
    },
    {
      "inputs": [],
      "name": "emergencyUnpause",
      "outputs": [],
      "stateMutability": "nonpayable",
      "type": "function"
    },
    {
      "inputs": [],
      "name": "emergencyVotingPeriod",
      "outputs": [
        {
          "internalType": "uint256",
          "name": "",
          "type": "uint256"
        }
      ],
      "stateMutability": "view",
      "type": "function"
    },
    {
      "inputs": [
        {
          "internalType": "uint256",
          "name": "proposalId",
          "type": "uint256"
        }
      ],
      "name": "execute",
      "outputs": [],
      "stateMutability": "payable",
      "type": "function"
    },
    {
      "inputs": [],
      "name": "executionDelay",
      "outputs": [
        {
          "internalType": "uint256",
          "name": "",
          "type": "uint256"
        }
      ],
      "stateMutability": "view",
      "type": "function"
    },
    {
      "inputs": [
        {
          "internalType": "uint256",
          "name": "proposalId",
          "type": "uint256"
        }
      ],
      "name": "getProposal",
      "outputs": [
        {
          "internalType": "address",
          "name": "proposer",
          "type": "address"
        },
        {
          "internalType": "enum ChainSureGovernance.ProposalType",
          "name": "proposalType",
          "type": "uint8"
        },
        {
          "internalType": "enum ChainSureGovernance.ProposalStatus",
          "name": "status",
          "type": "uint8"
        },
        {
          "internalType": "string",
          "name": "description",
          "type": "string"
        },
        {
          "internalType": "uint256",
          "name": "votingStart",
          "type": "uint256"
        },
        {
          "internalType": "uint256",
          "name": "votingEnd",
          "type": "uint256"
        },
        {
          "internalType": "uint256",
          "name": "forVotes",
          "type": "uint256"
        },
        {
          "internalType": "uint256",
          "name": "againstVotes",
          "type": "uint256"
        }
      ],
      "stateMutability": "view",
      "type": "function"
    },
    {
      "inputs": [
        {
          "internalType": "uint256",
          "name": "proposalId",
          "type": "uint256"
        }
      ],
      "name": "getProposalState",
      "outputs": [
        {
          "internalType": "enum ChainSureGovernance.ProposalStatus",
          "name": "",
          "type": "uint8"
        }
      ],
      "stateMutability": "view",
      "type": "function"
    },
    {
      "inputs": [
        {
          "internalType": "uint256",
          "name": "proposalId",
          "type": "uint256"
        },
        {
          "internalType": "address",
          "name": "voter",
          "type": "address"
        }
      ],
      "name": "getVote",
      "outputs": [
        {
          "components": [
            {
              "internalType": "bool",
              "name": "support",
              "type": "bool"
            },
            {
              "internalType": "uint256",
              "name": "votes",
              "type": "uint256"
            },
            {
              "internalType": "string",
              "name": "reason",
              "type": "string"
            }
          ],
          "internalType": "struct ChainSureGovernance.Vote",
          "name": "",
          "type": "tuple"
        }
      ],
      "stateMutability": "view",
      "type": "function"
    },
    {
      "inputs": [],
      "name": "governanceToken",
      "outputs": [
        {
          "internalType": "contract ChainSureGovernanceToken",
          "name": "",
          "type": "address"
        }
      ],
      "stateMutability": "view",
      "type": "function"
    },
    {
      "inputs": [],
      "name": "guardian",
      "outputs": [
        {
          "internalType": "address",
          "name": "",
          "type": "address"
        }
      ],
      "stateMutability": "view",
      "type": "function"
    },
    {
      "inputs": [],
      "name": "guardianPaused",
      "outputs": [
        {
          "internalType": "bool",
          "name": "",
          "type": "bool"
        }
      ],
      "stateMutability": "view",
      "type": "function"
    },
    {
      "inputs": [
        {
          "internalType": "uint256",
          "name": "proposalId",
          "type": "uint256"
        },
        {
          "internalType": "address",
          "name": "voter",
          "type": "address"
        }
      ],
      "name": "hasVoted",
      "outputs": [
        {
          "internalType": "bool",
          "name": "",
          "type": "bool"
        }
      ],
      "stateMutability": "view",
      "type": "function"
    },
    {
      "inputs": [],
      "name": "nextProposalId",
      "outputs": [
        {
          "internalType": "uint256",
          "name": "",
          "type": "uint256"
        }
      ],
      "stateMutability": "view",
      "type": "function"
    },
    {
      "inputs": [],
      "name": "owner",
      "outputs": [
        {
          "internalType": "address",
          "name": "",
          "type": "address"
        }
      ],
      "stateMutability": "view",
      "type": "function"
    },
    {
      "inputs": [],
      "name": "paused",
      "outputs": [
        {
          "internalType": "bool",
          "name": "",
          "type": "bool"
        }
      ],
      "stateMutability": "view",
      "type": "function"
    },
    {
      "inputs": [],
      "name": "policyNFT",
      "outputs": [
        {
          "internalType": "contract ChainSurePolicyNFT",
          "name": "",
          "type": "address"
        }
      ],
      "stateMutability": "view",
      "type": "function"
    },
    {
      "inputs": [],
      "name": "proposalMaxOperations",
      "outputs": [
        {
          "internalType": "uint256",
          "name": "",
          "type": "uint256"
        }
      ],
      "stateMutability": "view",
      "type": "function"
    },
    {
      "inputs": [
        {
          "internalType": "uint256",
          "name": "",
          "type": "uint256"
        }
      ],
      "name": "proposals",
      "outputs": [
        {
          "internalType": "uint256",
          "name": "proposalId",
          "type": "uint256"
        },
        {
          "internalType": "address",
          "name": "proposer",
          "type": "address"
        },
        {
          "internalType": "enum ChainSureGovernance.ProposalType",
          "name": "proposalType",
          "type": "uint8"
        },
        {
          "internalType": "enum ChainSureGovernance.ProposalStatus",
          "name": "status",
          "type": "uint8"
        },
        {
          "internalType": "string",
          "name": "description",
          "type": "string"
        },
        {
          "internalType": "bytes",
          "name": "executionData",
          "type": "bytes"
        },
        {
          "internalType": "address",
          "name": "targetContract",
          "type": "address"
        },
        {
          "internalType": "uint256",
          "name": "votingStart",
          "type": "uint256"
        },
        {
          "internalType": "uint256",
          "name": "votingEnd",
          "type": "uint256"
        },
        {
          "internalType": "uint256",
          "name": "executionDelay",
          "type": "uint256"
        },
        {
          "internalType": "uint256",
          "name": "forVotes",
          "type": "uint256"
        },
        {
          "internalType": "uint256",
          "name": "againstVotes",
          "type": "uint256"
        },
        {
          "internalType": "uint256",
          "name": "abstainVotes",
          "type": "uint256"
        },
        {
          "internalType": "bool",
          "name": "executed",
          "type": "bool"
        }
      ],
      "stateMutability": "view",
      "type": "function"
    },
    {
      "inputs": [
        {
          "internalType": "enum ChainSureGovernance.ProposalType",
          "name": "proposalType",
          "type": "uint8"
        },
        {
          "internalType": "string",
          "name": "description",
          "type": "string"
        },
        {
          "internalType": "address",
          "name": "targetContract",
          "type": "address"
        },
        {
          "internalType": "bytes",
          "name": "executionData",
          "type": "bytes"
        }
      ],
      "name": "propose",
      "outputs": [
        {
          "internalType": "uint256",
          "name": "",
          "type": "uint256"
        }
      ],
      "stateMutability": "nonpayable",
      "type": "function"
    },
    {
      "inputs": [
        {
          "internalType": "address[]",
          "name": "targets",
          "type": "address[]"
        },
        {
          "internalType": "uint256[]",
          "name": "amounts",
          "type": "uint256[]"
        },
        {
          "internalType": "string",
          "name": "reason",
          "type": "string"
        }
      ],
      "name": "proposeSlashing",
      "outputs": [
        {
          "internalType": "uint256",
          "name": "",
          "type": "uint256"
        }
      ],
      "stateMutability": "nonpayable",
      "type": "function"
    },
    {
      "inputs": [
        {
          "internalType": "address",
          "name": "governor",
          "type": "address"
        }
      ],
      "name": "removeEmergencyGovernor",
      "outputs": [],
      "stateMutability": "nonpayable",
      "type": "function"
    },
    {
      "inputs": [],
      "name": "renounceOwnership",
      "outputs": [],
      "stateMutability": "nonpayable",
      "type": "function"
    },
    {
      "inputs": [],
      "name": "surplusDistributor",
      "outputs": [
        {
          "internalType": "contract ChainSureSurplusDistributor",
          "name": "",
          "type": "address"
        }
      ],
      "stateMutability": "view",
      "type": "function"
    },
    {
      "inputs": [
        {
          "internalType": "enum ChainSureGovernance.ProposalType",
          "name": "",
          "type": "uint8"
        }
      ],
      "name": "thresholds",
      "outputs": [
        {
          "internalType": "uint256",
          "name": "proposalThreshold",
          "type": "uint256"
        },
        {
          "internalType": "uint256",
          "name": "quorumThreshold",
          "type": "uint256"
        },
        {
          "internalType": "uint256",
          "name": "approvalThreshold",
          "type": "uint256"
        }
      ],
      "stateMutability": "view",
      "type": "function"
    },
    {
      "inputs": [
        {
          "internalType": "address",
          "name": "newOwner",
          "type": "address"
        }
      ],
      "name": "transferOwnership",
      "outputs": [],
      "stateMutability": "nonpayable",
      "type": "function"
    },
    {
      "inputs": [
        {
          "internalType": "uint256",
          "name": "newDelay",
          "type": "uint256"
        }
      ],
      "name": "updateExecutionDelay",
      "outputs": [],
      "stateMutability": "nonpayable",
      "type": "function"
    },
    {
      "inputs": [
        {
          "internalType": "address",
          "name": "newGuardian",
          "type": "address"
        }
      ],
      "name": "updateGuardian",
      "outputs": [],
      "stateMutability": "nonpayable",
      "type": "function"
    },
    {
      "inputs": [
        {
          "internalType": "enum ChainSureGovernance.ProposalType",
          "name": "proposalType",
          "type": "uint8"
        },
        {
          "internalType": "uint256",
          "name": "proposalThreshold",
          "type": "uint256"
        },
        {
          "internalType": "uint256",
          "name": "quorumThreshold",
          "type": "uint256"
        },
        {
          "internalType": "uint256",
          "name": "approvalThreshold",
          "type": "uint256"
        }
      ],
      "name": "updateThresholds",
      "outputs": [],
      "stateMutability": "nonpayable",
      "type": "function"
    },
    {
      "inputs": [
        {
          "internalType": "uint256",
          "name": "newVotingPeriod",
          "type": "uint256"
        }
      ],
      "name": "updateVotingPeriod",
      "outputs": [],
      "stateMutability": "nonpayable",
      "type": "function"
    },
    {
      "inputs": [],
      "name": "votingPeriod",
      "outputs": [
        {
          "internalType": "uint256",
          "name": "",
          "type": "uint256"
        }
      ],
      "stateMutability": "view",
      "type": "function"
    }
  ],
  "bytecode": "0x6080604052600160095562093a80600a9081556202a300600b5562015180600c55600d55600e805460ff60a01b191690553480156200003d57600080fd5b506040516200339738038062003397833981016040819052620000609162000562565b6200006b33620004f5565b6000805460ff60a01b191681556001808055600280546001600160a01b03199081166001600160a01b03998a16178255600380548216988a16989098178855600480548216978a16979097178755600580548216968a16969096178655600e80549091169490981693909317909655604080516060808201835269021e19e0c9bab24000008252600a6020808401918252603c848601908152868052600780835294517f6d5257204ebe7d88fd91ae87941cb2dd9d8062b64ae5a2bd2d28ec40b9fbf6df5591517f6d5257204ebe7d88fd91ae87941cb2dd9d8062b64ae5a2bd2d28ec40b9fbf6e05590517f6d5257204ebe7d88fd91ae87941cb2dd9d8062b64ae5a2bd2d28ec40b9fbf6e15583518083018552690a968163f0a57b4000008152600f81830181815260468388018181529d895286855292517fb39221ace053465ec3453ce2b36430bd138b997ecea25c1043da0c366812b82855517fb39221ace053465ec3453ce2b36430bd138b997ecea25c1043da0c366812b829559a517fb39221ace053465ec3453ce2b36430bd138b997ecea25c1043da0c366812b82a558451808401865269054b40b1f852bda000008152600c818401908152604182880190815298885285845290517fb7c774451310d1be4108bc180d1b52823cb0ee0274a6c0081bcaf94f115fb96d55517fb7c774451310d1be4108bc180d1b52823cb0ee0274a6c0081bcaf94f115fb96e5595517fb7c774451310d1be4108bc180d1b52823cb0ee0274a6c0081bcaf94f115fb96f558351808301855269152d02c7e14af680000081526014818301908152604b8287019081529a875284835290517f3be6fd20d5acfde5b873b48692cd31f4d3c7e8ee8a813af4696af8859e5ca6c655517f3be6fd20d5acfde5b873b48692cd31f4d3c7e8ee8a813af4696af8859e5ca6c75597517f3be6fd20d5acfde5b873b48692cd31f4d3c7e8ee8a813af4696af8859e5ca6c8558251808201845269010f0cf064dd5920000081528089018781526032828601908152988652838a5290517fb805995a7ec585a251200611a61d179cfd7fb105e1ab17dc415a7336783786f755517fb805995a7ec585a251200611a61d179cfd7fb105e1ab17dc415a7336783786f85595517fb805995a7ec585a251200611a61d179cfd7fb105e1ab17dc415a7336783786f95581518087018352690fe1c215e8f838e0000081526012818901908152818401958652958452818852517fbcdda56b5d08466ec462cbbe0adfa57cb0a15fcc8940ef68f702f21b787bc9355593517fbcdda56b5d08466ec462cbbe0adfa57cb0a15fcc8940ef68f702f21b787bc9365591517fbcdda56b5d08466ec462cbbe0adfa57cb0a15fcc8940ef68f702f21b787bc937558151938401825269043c33c193756480000084528385019586526050918401918252600690529252517f55c5b153ab560fcde54a63b18c7f53d75501706907cef8767fbded79ab9997c75590517f55c5b153ab560fcde54a63b18c7f53d75501706907cef8767fbded79ab9997c855517f55c5b153ab560fcde54a63b18c7f53d75501706907cef8767fbded79ab9997c955620005d2565b600080546001600160a01b038381166001600160a01b0319831681178455604051919092169283917f8be0079c531659141344cd1fd0a4f28419497f9722a3daafe3b4186f6b6457e09190a35050565b80516001600160a01b03811681146200055d57600080fd5b919050565b600080600080600060a086880312156200057b57600080fd5b620005868662000545565b9450620005966020870162000545565b9350620005a66040870162000545565b9250620005b66060870162000545565b9150620005c66080870162000545565b90509295509295909350565b612db580620005e26000396000f3fe60806040526004361061020f5760003560e01c806376c3f28511610118578063c3ab432a116100a0578063f2fde38b1161006f578063f2fde38b1461066e578063f96dae0a1461068e578063fc525395146106ae578063fc7e29bd146106ce578063fe0d94c1146106ef57600080fd5b8063c3ab432a146105da578063c7f758a8146105fa578063cbb18db81461062e578063ef00ef431461064e57600080fd5b80639080936f116100e75780639080936f1461052057806390d200381461054d5780639fcd16911461056d578063af02808a1461058d578063bc3f931f146105ad57600080fd5b806376c3f285146104b65780637bdbe4d0146104d65780638b257989146104ec5780638da5cb5b1461050257600080fd5b8063438596321161019b578063561fd1d81161016a578063561fd1d8146103eb5780635a50d2f41461040b5780635c975abb1461046257806362aef6f014610481578063715018a6146104a157600080fd5b80634385963214610381578063452a9320146103a15780634a4e3bd5146103c157806351858e27146103d657600080fd5b80631099ae0a116101e25780631099ae0a146102db5780631536f4721461031357806318b62629146103355780632430e6321461034b5780632ab09d141461036b57600080fd5b8063013cf08b1461021457806302a251a31461025757806303398aa81461027b57806304b0f7e91461029b575b600080fd5b34801561022057600080fd5b5061023461022f36600461230a565b610702565b60405161024e9e9d9c9b9a999897969594939291906123b4565b60405180910390f35b34801561026357600080fd5b5061026d600a5481565b60405190815260200161024e565b34801561028757600080fd5b5061026d61029636600461255e565b61089a565b3480156102a757600080fd5b506102cb6102b63660046125f7565b60086020526000908152604090205460ff1681565b604051901515815260200161024e565b3480156102e757600080fd5b506004546102fb906001600160a01b031681565b6040516001600160a01b03909116815260200161024e565b34801561031f57600080fd5b5061033361032e366004612612565b610be6565b005b34801561034157600080fd5b5061026d600c5481565b34801561035757600080fd5b506103336103663660046125f7565b610e23565b34801561037757600080fd5b5061026d60095481565b34801561038d57600080fd5b506102cb61039c366004612659565b610e4f565b3480156103ad57600080fd5b50600e546102fb906001600160a01b031681565b3480156103cd57600080fd5b50610333610e7f565b3480156103e257600080fd5b50610333610eeb565b3480156103f757600080fd5b50610333610406366004612685565b610f5b565b34801561041757600080fd5b506104476104263660046126be565b60076020526000908152604090208054600182015460029092015490919083565b6040805193845260208401929092529082015260600161024e565b34801561046e57600080fd5b50600054600160a01b900460ff166102cb565b34801561048d57600080fd5b5061033361049c3660046126e9565b6110ec565b3480156104ad57600080fd5b50610333611105565b3480156104c257600080fd5b506103336104d13660046125f7565b611117565b3480156104e257600080fd5b5061026d600d5481565b3480156104f857600080fd5b5061026d600b5481565b34801561050e57600080fd5b506000546001600160a01b03166102fb565b34801561052c57600080fd5b5061054061053b36600461230a565b611140565b60405161024e9190612740565b34801561055957600080fd5b5061033361056836600461230a565b611320565b34801561057957600080fd5b50610333610588366004612753565b611380565b34801561059957600080fd5b506003546102fb906001600160a01b031681565b3480156105b957600080fd5b506105cd6105c8366004612659565b611483565b60405161024e91906127d5565b3480156105e657600080fd5b5061026d6105f536600461289d565b61157e565b34801561060657600080fd5b5061061a61061536600461230a565b6116b1565b60405161024e989796959493929190612977565b34801561063a57600080fd5b506005546102fb906001600160a01b031681565b34801561065a57600080fd5b5061033361066936600461230a565b6117bf565b34801561067a57600080fd5b506103336106893660046125f7565b6118c9565b34801561069a57600080fd5b506002546102fb906001600160a01b031681565b3480156106ba57600080fd5b506103336106c93660046125f7565b611942565b3480156106da57600080fd5b50600e546102cb90600160a01b900460ff1681565b6103336106fd36600461230a565b61196c565b60066020526000908152604090208054600182015460028301805492936001600160a01b0383169360ff600160a01b8504811694600160a81b9004169290610749906129e0565b80601f0160208091040260200160405190810160405280929190818152602001828054610775906129e0565b80156107c25780601f10610797576101008083540402835291602001916107c2565b820191906000526020600020905b8154815290600101906020018083116107a557829003601f168201915b5050505050908060030180546107d7906129e0565b80601f0160208091040260200160405190810160405280929190818152602001828054610803906129e0565b80156108505780601f1061082557610100808354040283529160200191610850565b820191906000526020600020905b81548152906001019060200180831161083357829003601f168201915b505050600484015460058501546006860154600787015460088801546009890154600a8a0154600b909a015498996001600160a01b03909616989497509295509093909260ff168e565b60006108a4611bdd565b600e54600160a01b900460ff16156109035760405162461bcd60e51b815260206004820152601b60248201527f476f7665726e616e63653a20677561726469616e20706175736564000000000060448201526064015b60405180910390fd5b60008451116109545760405162461bcd60e51b815260206004820152601d60248201527f476f7665726e616e63653a20656d707479206465736372697074696f6e00000060448201526064016108fa565b6002546040516309ab24eb60e41b81523360048201526000916001600160a01b031690639ab24eb090602401602060405180830381865afa15801561099d573d6000803e3d6000fd5b505050506040513d601f19601f820116820180604052508101906109c19190612a1a565b9050600760008760068111156109d9576109d9612323565b60068111156109ea576109ea612323565b815260200190815260200160002060000154811015610a595760405162461bcd60e51b815260206004820152602560248201527f476f7665726e616e63653a20696e73756666696369656e7420766f74696e67206044820152643837bbb2b960d91b60648201526084016108fa565b6009805460009182610a6a83612a49565b9091555090504260006004896006811115610a8757610a87612323565b14610a9e57600a54610a999083612a62565b610aab565b600c54610aab9083612a62565b6000848152600660208190526040909120858155600181018054336001600160a01b031982168117835594955091938d9391926001600160a81b03191660ff60a01b199091161790600160a01b908490811115610b0a57610b0a612323565b021790555060018101805460ff60a81b1916600160a81b17905560028101610b328a82612abb565b506004810180546001600160a01b0319166001600160a01b038a1617905560038101610b5e8882612abb565b50600581018390556006810182905560048a6006811115610b8157610b81612323565b14610b8e57600b54610b91565b60005b6007820155604051339085907f47a2aa5c08b3748005a89b7e0e9fa72c7117a4dc828ffc76e92b275d069317d490610bd0908e908e9089908990612b7b565b60405180910390a3509198975050505050505050565b600082815260066020526040902060018101546001600160a01b0316331480610c195750600e546001600160a01b031633145b80610cdd57506001810154600790600090600160a01b900460ff166006811115610c4557610c45612323565b6006811115610c5657610c56612323565b81526020810191909152604090810160002054600254600184015492516309ab24eb60e41b81526001600160a01b03938416600482015291921690639ab24eb090602401602060405180830381865afa158015610cb7573d6000803e3d6000fd5b505050506040513d601f19601f82011682018060405250810190610cdb9190612a1a565b105b610d375760405162461bcd60e51b815260206004820152602560248201527f476f7665726e616e63653a20756e617574686f72697a65642063616e63656c6c60448201526430ba34b7b760d91b60648201526084016108fa565b60006001820154600160a81b900460ff166006811115610d5957610d59612323565b1480610d835750600180820154600160a81b900460ff166006811115610d8157610d81612323565b145b610dcf5760405162461bcd60e51b815260206004820152601960248201527f476f7665726e616e63653a2063616e6e6f742063616e63656c0000000000000060448201526064016108fa565b60018101805460ff60a81b1916600560a81b17905560405183907fc7c129e53e59dadfa16305619e80c7519f1f6912c10915359fd75b56bcecdd7b90610e16908590612bb0565b60405180910390a2505050565b610e2b611c2a565b6001600160a01b03166000908152600860205260409020805460ff19166001179055565b60008281526006602090815260408083206001600160a01b0385168452600c0190915290205460ff165b92915050565b600e546001600160a01b03163314610ed45760405162461bcd60e51b815260206004820152601860248201527723b7bb32b93730b731b29d103737ba1033bab0b93234b0b760411b60448201526064016108fa565b600e805460ff60a01b19169055610ee9611c84565b565b600e546001600160a01b03163314610f405760405162461bcd60e51b815260206004820152601860248201527723b7bb32b93730b731b29d103737ba1033bab0b93234b0b760411b60448201526064016108fa565b600e805460ff60a01b1916600160a01b179055610ee9611cd9565b610f63611c2a565b6032821115610fb45760405162461bcd60e51b815260206004820152601b60248201527f476f7665726e616e63653a2071756f72756d20746f6f2068696768000000000060448201526064016108fa565b605f8111156110155760405162461bcd60e51b815260206004820152602760248201527f476f7665726e616e63653a20617070726f76616c207468726573686f6c6420746044820152660dede40d0d2ced60cb1b60648201526084016108fa565b60328110156110755760405162461bcd60e51b815260206004820152602660248201527f476f7665726e616e63653a20617070726f76616c207468726573686f6c6420746044820152656f6f206c6f7760d01b60648201526084016108fa565b604051806060016040528084815260200183815260200182815250600760008660068111156110a6576110a6612323565b60068111156110b7576110b7612323565b815260200190815260200160002060008201518160000155602082015181600101556040820151816002015590505050505050565b6110f4611bdd565b61110083338484611d1c565b505050565b61110d611c2a565b610ee9600061202f565b61111f611c2a565b6001600160a01b03166000908152600860205260409020805460ff19169055565b6000818152600660205260408120600180820154600160a81b900460ff16600681111561116f5761116f612323565b146111885760010154600160a81b900460ff1692915050565b8060060154421161119c5750600192915050565b6000816009015482600801546111b29190612a62565b90506000600260009054906101000a90046001600160a01b03166001600160a01b03166318160ddd6040518163ffffffff1660e01b8152600401602060405180830381865afa158015611209573d6000803e3d6000fd5b505050506040513d601f19601f8201168201806040525081019061122d9190612a1a565b90506000600760008560010160149054906101000a900460ff16600681111561125857611258612323565b600681111561126957611269612323565b81526020019081526020016000206001015490506000600760008660010160149054906101000a900460ff1660068111156112a6576112a6612323565b60068111156112b7576112b7612323565b815260200190815260200160002060020154905081836112d79190612bc3565b6112e2856064612bc3565b10611313576112f18185612bc3565b6008860154611301906064612bc3565b10611313575060029695505050505050565b5060039695505050505050565b611328611c2a565b62093a8081111561137b5760405162461bcd60e51b815260206004820152601a60248201527f476f7665726e616e63653a2064656c617920746f6f206c6f6e6700000000000060448201526064016108fa565b600b55565b611388611bdd565b600086868660405160200161139f93929190612bda565b60408051601f198184030181528282528051602091820120600080855291840180845281905260ff88169284019290925260608301869052608083018590529092509060019060a0016020604051602081039080840390855afa15801561140a573d6000803e3d6000fd5b5050604051601f1901519150506001600160a01b03811661146d5760405162461bcd60e51b815260206004820152601d60248201527f476f7665726e616e63653a20696e76616c6964207369676e617475726500000060448201526064016108fa565b61147988828989611d1c565b5050505050505050565b604080516060808201835260008083526020808401829052838501839052868252600681528482206001600160a01b0387168352600d0181529084902084519283018552805460ff16151583526001810154918301919091526002810180549394929391928401916114f4906129e0565b80601f0160208091040260200160405190810160405280929190818152602001828054611520906129e0565b801561156d5780601f106115425761010080835404028352916020019161156d565b820191906000526020600020905b81548152906001019060200180831161155057829003601f168201915b505050505081525050905092915050565b600082518451146115db5760405162461bcd60e51b815260206004820152602160248201527f476f7665726e616e63653a206172726179206c656e677468206d69736d6174636044820152600d60fb1b60648201526084016108fa565b600084511161162c5760405162461bcd60e51b815260206004820152601960248201527f476f7665726e616e63653a20656d70747920746172676574730000000000000060448201526064016108fa565b600084848460405160240161164393929190612c0c565b60408051601f19818403018152918152602080830180516001600160e01b0316633ec6e06160e11b17905290519192506116a89160069161168691879101612ca3565b60408051601f198184030181529190526002546001600160a01b03168461089a565b95945050505050565b6000818152600660208190526040822060018101546005820154928201546008830154600984015460028501805488978897606097899788978897889794966001600160a01b0385169660ff600160a01b8704811697600160a81b9097041695949093909290918590611723906129e0565b80601f016020809104026020016040519081016040528092919081815260200182805461174f906129e0565b801561179c5780601f106117715761010080835404028352916020019161179c565b820191906000526020600020905b81548152906001019060200180831161177f57829003601f168201915b505050505094509850985098509850985098509850985050919395975091939597565b6117c7611c2a565b620151808110156118265760405162461bcd60e51b815260206004820152602360248201527f476f7665726e616e63653a20766f74696e6720706572696f6420746f6f2073686044820152621bdc9d60ea1b60648201526084016108fa565b62278d008111156118845760405162461bcd60e51b815260206004820152602260248201527f476f7665726e616e63653a20766f74696e6720706572696f6420746f6f206c6f6044820152616e6760f01b60648201526084016108fa565b600a80549082905560408051828152602081018490527fffc708f072ca56e3d45ef0cb288b96cb9378f5f63e1646868bfbc9c38f4263a1910160405180910390a15050565b6118d1611c2a565b6001600160a01b0381166119365760405162461bcd60e51b815260206004820152602660248201527f4f776e61626c653a206e6577206f776e657220697320746865207a65726f206160448201526564647265737360d01b60648201526084016108fa565b61193f8161202f565b50565b61194a611c2a565b600e80546001600160a01b0319166001600160a01b0392909216919091179055565b611974611bdd565b61197c61207f565b600081815260066020526040902060026001820154600160a81b900460ff1660068111156119ac576119ac612323565b14611a045760405162461bcd60e51b815260206004820152602260248201527f476f7665726e616e63653a2070726f706f73616c206e6f742073756363656564604482015261195960f21b60648201526084016108fa565b80600701548160060154611a189190612a62565b421015611a735760405162461bcd60e51b815260206004820152602360248201527f476f7665726e616e63653a20657865637574696f6e2064656c6179206e6f74206044820152621b595d60ea1b60648201526084016108fa565b600b81015460ff1615611ac85760405162461bcd60e51b815260206004820152601c60248201527f476f7665726e616e63653a20616c72656164792065786563757465640000000060448201526064016108fa565b600b8101805460ff191660019081179091558101805460ff60a81b1916600160aa1b17905560048101546000906001600160a01b031615801590611b1c57506000826003018054611b18906129e0565b9050115b15611b925760048201546040516001600160a01b03909116903490611b45906003860190612ce8565b60006040518083038185875af1925050503d8060008114611b82576040519150601f19603f3d011682016040523d82523d6000602084013e611b87565b606091505b505080915050611b96565b5060015b827f948f4a9cd986f1118c3fbd459f7a22b23c0693e1ca3ef06a6a8be5aa7d39cc0382604051611bca911515815260200190565b60405180910390a2505061193f60018055565b600054600160a01b900460ff1615610ee95760405162461bcd60e51b815260206004820152601060248201526f14185d5cd8589b194e881c185d5cd95960821b60448201526064016108fa565b6000546001600160a01b03163314610ee95760405162461bcd60e51b815260206004820181905260248201527f4f776e61626c653a2063616c6c6572206973206e6f7420746865206f776e657260448201526064016108fa565b611c8c6120d8565b6000805460ff60a01b191690557f5db9ee0a495bf2e6ff9c91a7834c1ba4fdd244a5e8aa4e537bd38aeae4b073aa335b6040516001600160a01b03909116815260200160405180910390a1565b611ce1611bdd565b6000805460ff60a01b1916600160a01b1790557f62e78cea01bee320cd4e420270b5ea74000d11b0c9f74754ebdbfc544b05a258611cbc3390565b6000848152600660205260409020600180820154600160a81b900460ff166006811115611d4b57611d4b612323565b14611d985760405162461bcd60e51b815260206004820152601d60248201527f476f7665726e616e63653a20766f74696e67206e6f742061637469766500000060448201526064016108fa565b8060060154421115611dec5760405162461bcd60e51b815260206004820152601860248201527f476f7665726e616e63653a20766f74696e6720656e646564000000000000000060448201526064016108fa565b6001600160a01b0384166000908152600c8201602052604090205460ff1615611e575760405162461bcd60e51b815260206004820152601960248201527f476f7665726e616e63653a20616c726561647920766f7465640000000000000060448201526064016108fa565b6002546040516309ab24eb60e41b81526001600160a01b0386811660048301526000921690639ab24eb090602401602060405180830381865afa158015611ea2573d6000803e3d6000fd5b505050506040513d601f19601f82011682018060405250810190611ec69190612a1a565b905060008111611f185760405162461bcd60e51b815260206004820152601b60248201527f476f7665726e616e63653a206e6f20766f74696e6720706f776572000000000060448201526064016108fa565b6001600160a01b0385166000818152600c840160209081526040808320805460ff19908116600190811790925582516060810184528a151581528085018881528185018b8152978752600d8a019095529290942082518154901515951694909417845591519183019190915591516002820190611f959082612abb565b509050508315611fbe5780826008016000828254611fb39190612a62565b90915550611fd89050565b80826009016000828254611fd29190612a62565b90915550505b846001600160a01b0316867f63453ebf8e1aa432b8d77257d489f75c1a106cdbd568c0e0c63547d20fc91fa886848760405161201693929190612d5e565b60405180910390a361202786612128565b505050505050565b600080546001600160a01b038381166001600160a01b0319831681178455604051919092169283917f8be0079c531659141344cd1fd0a4f28419497f9722a3daafe3b4186f6b6457e09190a35050565b6002600154036120d15760405162461bcd60e51b815260206004820152601f60248201527f5265656e7472616e637947756172643a207265656e7472616e742063616c6c0060448201526064016108fa565b6002600155565b600054600160a01b900460ff16610ee95760405162461bcd60e51b815260206004820152601460248201527314185d5cd8589b194e881b9bdd081c185d5cd95960621b60448201526064016108fa565b6000818152600660208190526040909120908101544211156123065760008160090154826008015461215a9190612a62565b90506000600260009054906101000a90046001600160a01b03166001600160a01b03166318160ddd6040518163ffffffff1660e01b8152600401602060405180830381865afa1580156121b1573d6000803e3d6000fd5b505050506040513d601f19601f820116820180604052508101906121d59190612a1a565b90506000600760008560010160149054906101000a900460ff16600681111561220057612200612323565b600681111561221157612211612323565b81526020019081526020016000206001015490506000600760008660010160149054906101000a900460ff16600681111561224e5761224e612323565b600681111561225f5761225f612323565b8152602001908152602001600020600201549050818361227f9190612bc3565b61228a856064612bc3565b106122ec576122998185612bc3565b60088601546122a9906064612bc3565b106122d0576001850180546002919060ff60a81b1916600160a81b835b0217905550612027565b6001850180546003919060ff60a81b1916600160a81b836122c6565b5050505060018101805460ff60a81b1916600360a81b1790555b5050565b60006020828403121561231c57600080fd5b5035919050565b634e487b7160e01b600052602160045260246000fd5b6007811061193f57634e487b7160e01b600052602160045260246000fd5b61236081612339565b9052565b60005b8381101561237f578181015183820152602001612367565b50506000910152565b600081518084526123a0816020860160208601612364565b601f01601f19169290920160200192915050565b8e81526001600160a01b038e1660208201526123d3604082018e612357565b6123e0606082018d612357565b6101c0608082015260006123f86101c083018d612388565b82810360a084015261240a818d612388565b91505061242260c083018b6001600160a01b03169052565b8860e0830152876101008301528661012083015285610140830152846101608301528361018083015261245a6101a083018415159052565b9f9e505050505050505050505050505050565b80356007811061247c57600080fd5b919050565b634e487b7160e01b600052604160045260246000fd5b604051601f8201601f1916810167ffffffffffffffff811182821017156124c0576124c0612481565b604052919050565b600067ffffffffffffffff8311156124e2576124e2612481565b6124f5601f8401601f1916602001612497565b905082815283838301111561250957600080fd5b828260208301376000602084830101529392505050565b600082601f83011261253157600080fd5b612540838335602085016124c8565b9392505050565b80356001600160a01b038116811461247c57600080fd5b6000806000806080858703121561257457600080fd5b61257d8561246d565b9350602085013567ffffffffffffffff8082111561259a57600080fd5b6125a688838901612520565b94506125b460408801612547565b935060608701359150808211156125ca57600080fd5b508501601f810187136125dc57600080fd5b6125eb878235602084016124c8565b91505092959194509250565b60006020828403121561260957600080fd5b61254082612547565b6000806040838503121561262557600080fd5b82359150602083013567ffffffffffffffff81111561264357600080fd5b61264f85828601612520565b9150509250929050565b6000806040838503121561266c57600080fd5b8235915061267c60208401612547565b90509250929050565b6000806000806080858703121561269b57600080fd5b6126a48561246d565b966020860135965060408601359560600135945092505050565b6000602082840312156126d057600080fd5b6125408261246d565b8035801515811461247c57600080fd5b6000806000606084860312156126fe57600080fd5b8335925061270e602085016126d9565b9150604084013567ffffffffffffffff81111561272a57600080fd5b61273686828701612520565b9150509250925092565b6020810161274d83612339565b91905290565b60008060008060008060c0878903121561276c57600080fd5b8635955061277c602088016126d9565b9450604087013567ffffffffffffffff81111561279857600080fd5b6127a489828a01612520565b945050606087013560ff811681146127bb57600080fd5b9598949750929560808101359460a0909101359350915050565b6020815281511515602082015260208201516040820152600060408301516060808401526128066080840182612388565b949350505050565b600067ffffffffffffffff82111561282857612828612481565b5060051b60200190565b600082601f83011261284357600080fd5b813560206128586128538361280e565b612497565b82815260059290921b8401810191818101908684111561287757600080fd5b8286015b84811015612892578035835291830191830161287b565b509695505050505050565b6000806000606084860312156128b257600080fd5b833567ffffffffffffffff808211156128ca57600080fd5b818601915086601f8301126128de57600080fd5b813560206128ee6128538361280e565b82815260059290921b8401810191818101908a84111561290d57600080fd5b948201945b838610156129325761292386612547565b82529482019490820190612912565b9750508701359250508082111561294857600080fd5b61295487838801612832565b9350604086013591508082111561296a57600080fd5b5061273686828701612520565b6001600160a01b038916815260006101006129918a612339565b8960208401526129a089612339565b8860408401528060608401526129b881840189612388565b9150508560808301528460a08301528360c08301528260e08301529998505050505050505050565b600181811c908216806129f457607f821691505b602082108103612a1457634e487b7160e01b600052602260045260246000fd5b50919050565b600060208284031215612a2c57600080fd5b5051919050565b634e487b7160e01b600052601160045260246000fd5b600060018201612a5b57612a5b612a33565b5060010190565b80820180821115610e7957610e79612a33565b601f82111561110057600081815260208120601f850160051c81016020861015612a9c5750805b601f850160051c820191505b8181101561202757828155600101612aa8565b815167ffffffffffffffff811115612ad557612ad5612481565b612ae981612ae384546129e0565b84612a75565b602080601f831160018114612b1e5760008415612b065750858301515b600019600386901b1c1916600185901b178555612027565b600085815260208120601f198616915b82811015612b4d57888601518255948401946001909101908401612b2e565b5085821015612b6b5787850151600019600388901b60f8161c191681555b5050505050600190811b01905550565b612b8485612339565b848152608060208201526000612b9d6080830186612388565b6040830194909452506060015292915050565b6020815260006125406020830184612388565b8082028115828204841417610e7957610e79612a33565b83815282151560f81b602082015260008251612bfd816021850160208701612364565b91909101602101949350505050565b606080825284519082018190526000906020906080840190828801845b82811015612c4e5781516001600160a01b031684529284019290840190600101612c29565b5050508381038285015285518082528683019183019060005b81811015612c8357835183529284019291840191600101612c67565b50508481036040860152612c978187612388565b98975050505050505050565b7f536c617368206d616c6963696f7573206163746f72733a200000000000000000815260008251612cdb816018850160208701612364565b9190910160180192915050565b6000808354612cf6816129e0565b60018281168015612d0e5760018114612d2357612d52565b60ff1984168752821515830287019450612d52565b8760005260208060002060005b85811015612d495781548a820152908401908201612d30565b50505082870194505b50929695505050505050565b83151581528260208201526060604082015260006116a8606083018461238856fea2646970667358221220dec442f20ac065003c6e0b20a3dd007b00106c3548a65163f3a118ab1396308164736f6c63430008140033",
  "linkReferences": {},
  "deployedLinkReferences": {}
}