{
  "_format": "hh-sol-artifact-1",
  "contractName": "ChainSureGovernanceToken",
  "sourceName": "contracts/ChainSureGovernanceToken.sol",
  "abi": [
    {
      "inputs": [
        {
          "internalType": "uint256",
          "name": "initialSupply",
          "type": "uint256"
        }
      ],
      "stateMutability": "nonpayable",
      "type": "constructor"
    },
    {
      "anonymous": false,
      "inputs": [
        {
          "indexed": true,
          "internalType": "address",
          "name": "owner",
          "type": "address"
        },
        {
          "indexed": true,
          "internalType": "address",
          "name": "spender",
          "type": "address"
        },
        {
          "indexed": false,
          "internalType": "uint256",
          "name": "value",
          "type": "uint256"
        }
      ],
      "name": "Approval",
      "type": "event"
    },
    {
      "anonymous": false,
      "inputs": [
        {
          "indexed": true,
          "internalType": "address",
          "name": "juror",
          "type": "address"
        },
        {
          "indexed": false,
          "internalType": "uint256",
          "name": "stakedAmount",
          "type": "uint256"
        }
      ],
      "name": "JuryPoolJoined",
      "type": "event"
    },
    {
      "anonymous": false,
      "inputs": [
        {
          "indexed": true,
          "internalType": "address",
          "name": "juror",
          "type": "address"
        },
        {
          "indexed": false,
          "internalType": "uint256",
          "name": "unstakedAmount",
          "type": "uint256"
        }
      ],
      "name": "JuryPoolLeft",
      "type": "event"
    },
    {
      "anonymous": false,
      "inputs": [
        {
          "indexed": true,
          "internalType": "address",
          "name": "previousOwner",
          "type": "address"
        },
        {
          "indexed": true,
          "internalType": "address",
          "name": "newOwner",
          "type": "address"
        }
      ],
      "name": "OwnershipTransferred",
      "type": "event"
    },
    {
      "anonymous": false,
      "inputs": [
        {
          "indexed": false,
          "internalType": "address",
          "name": "account",
          "type": "address"
        }
      ],
      "name": "Paused",
      "type": "event"
    },
    {
      "anonymous": false,
      "inputs": [
        {
          "indexed": true,
          "internalType": "address",
          "name": "recipient",
          "type": "address"
        },
        {
          "indexed": false,
          "internalType": "uint256",
          "name": "amount",
          "type": "uint256"
        },
        {
          "indexed": false,
          "internalType": "string",
          "name": "reason",
          "type": "string"
        }
      ],
      "name": "RewardsDistributed",
      "type": "event"
    },
    {
      "anonymous": false,
      "inputs": [
        {
          "indexed": true,
          "internalType": "address",
          "name": "slashed",
          "type": "address"
        },
        {
          "indexed": false,
          "internalType": "uint256",
          "name": "amount",
          "type": "uint256"
        },
        {
          "indexed": false,
          "internalType": "string",
          "name": "reason",
          "type": "string"
        }
      ],
      "name": "TokensSlashed",
      "type": "event"
    },
    {
      "anonymous": false,
      "inputs": [
        {
          "indexed": true,
          "internalType": "address",
          "name": "staker",
          "type": "address"
        },
        {
          "indexed": false,
          "internalType": "uint256",
          "name": "amount",
          "type": "uint256"
        },
        {
          "indexed": false,
          "internalType": "uint256",
          "name": "lockPeriod",
          "type": "uint256"
        }
      ],
      "name": "TokensStaked",
      "type": "event"
    },
    {
      "anonymous": false,
      "inputs": [
        {
          "indexed": true,
          "internalType": "address",
          "name": "staker",
          "type": "address"
        },
        {
          "indexed": false,
          "internalType": "uint256",
          "name": "amount",
          "type": "uint256"
        }
      ],
      "name": "TokensUnstaked",
      "type": "event"
    },
    {
      "anonymous": false,
      "inputs": [
        {
          "indexed": true,
          "internalType": "address",
          "name": "from",
          "type": "address"
        },
        {
          "indexed": true,
          "internalType": "address",
          "name": "to",
          "type": "address"
        },
        {
          "indexed": false,
          "internalType": "uint256",
          "name": "value",
          "type": "uint256"
        }
      ],
      "name": "Transfer",
      "type": "event"
    },
    {
      "anonymous": false,
      "inputs": [
        {
          "indexed": false,
          "internalType": "address",
          "name": "account",
          "type": "address"
        }
      ],
      "name": "Unpaused",
      "type": "event"
    },
    {
      "inputs": [],
      "name": "GOVERNANCE_STAKE_PERIOD",
      "outputs": [
        {
          "internalType": "uint256",
          "name": "",
          "type": "uint256"
        }
      ],
      "stateMutability": "view",
      "type": "function"
    },
    {
      "inputs": [],
      "name": "JURY_STAKE_PERIOD",
      "outputs": [
        {
          "internalType": "uint256",
          "name": "",
          "type": "uint256"
        }
      ],
      "stateMutability": "view",
      "type": "function"
    },
    {
      "inputs": [],
      "name": "MIN_STAKE_PERIOD",
      "outputs": [
        {
          "internalType": "uint256",
          "name": "",
          "type": "uint256"
        }
      ],
      "stateMutability": "view",
      "type": "function"
    },
    {
      "inputs": [
        {
          "internalType": "uint256",
          "name": "",
          "type": "uint256"
        }
      ],
      "name": "activeJurors",
      "outputs": [
        {
          "internalType": "address",
          "name": "",
          "type": "address"
        }
      ],
      "stateMutability": "view",
      "type": "function"
    },
    {
      "inputs": [
        {
          "internalType": "uint256",
          "name": "amount",
          "type": "uint256"
        }
      ],
      "name": "addToRewardPool",
      "outputs": [],
      "stateMutability": "nonpayable",
      "type": "function"
    },
    {
      "inputs": [
        {
          "internalType": "address",
          "name": "owner",
          "type": "address"
        },
        {
          "internalType": "address",
          "name": "spender",
          "type": "address"
        }
      ],
      "name": "allowance",
      "outputs": [
        {
          "internalType": "uint256",
          "name": "",
          "type": "uint256"
        }
      ],
      "stateMutability": "view",
      "type": "function"
    },
    {
      "inputs": [
        {
          "internalType": "address",
          "name": "spender",
          "type": "address"
        },
        {
          "internalType": "uint256",
          "name": "amount",
          "type": "uint256"
        }
      ],
      "name": "approve",
      "outputs": [
        {
          "internalType": "bool",
          "name": "",
          "type": "bool"
        }
      ],
      "stateMutability": "nonpayable",
      "type": "function"
    },
    {
      "inputs": [
        {
          "internalType": "address",
          "name": "account",
          "type": "address"
        }
      ],
      "name": "balanceOf",
      "outputs": [
        {
          "internalType": "uint256",
          "name": "",
          "type": "uint256"
        }
      ],
      "stateMutability": "view",
      "type": "function"
    },
    {
      "inputs": [
        {
          "internalType": "uint256",
          "name": "amount",
          "type": "uint256"
        }
      ],
      "name": "burn",
      "outputs": [],
      "stateMutability": "nonpayable",
      "type": "function"
    },
    {
      "inputs": [
        {
          "internalType": "address",
          "name": "account",
          "type": "address"
        },
        {
          "internalType": "uint256",
          "name": "amount",
          "type": "uint256"
        }
      ],
      "name": "burnFrom",
      "outputs": [],
      "stateMutability": "nonpayable",
      "type": "function"
    },
    {
      "inputs": [
        {
          "internalType": "address",
          "name": "potential",
          "type": "address"
        }
      ],
      "name": "canBeJuror",
      "outputs": [
        {
          "internalType": "bool",
          "name": "",
          "type": "bool"
        }
      ],
      "stateMutability": "view",
      "type": "function"
    },
    {
      "inputs": [],
      "name": "decimals",
      "outputs": [
        {
          "internalType": "uint8",
          "name": "",
          "type": "uint8"
        }
      ],
      "stateMutability": "view",
      "type": "function"
    },
    {
      "inputs": [
        {
          "internalType": "address",
          "name": "spender",
          "type": "address"
        },
        {
          "internalType": "uint256",
          "name": "subtractedValue",
          "type": "uint256"
        }
      ],
      "name": "decreaseAllowance",
      "outputs": [
        {
          "internalType": "bool",
          "name": "",
          "type": "bool"
        }
      ],
      "stateMutability": "nonpayable",
      "type": "function"
    },
    {
      "inputs": [
        {
          "internalType": "address[]",
          "name": "recipients",
          "type": "address[]"
        },
        {
          "internalType": "uint256[]",
          "name": "amounts",
          "type": "uint256[]"
        },
        {
          "internalType": "string",
          "name": "reason",
          "type": "string"
        }
      ],
      "name": "distributeRewards",
      "outputs": [],
      "stateMutability": "nonpayable",
      "type": "function"
    },
    {
      "inputs": [],
      "name": "getActiveJurorsCount",
      "outputs": [
        {
          "internalType": "uint256",
          "name": "",
          "type": "uint256"
        }
      ],
      "stateMutability": "view",
      "type": "function"
    },
    {
      "inputs": [
        {
          "internalType": "address",
          "name": "staker",
          "type": "address"
        }
      ],
      "name": "getStakeInfo",
      "outputs": [
        {
          "components": [
            {
              "internalType": "uint256",
              "name": "amount",
              "type": "uint256"
            },
            {
              "internalType": "uint256",
              "name": "lockUntil",
              "type": "uint256"
            },
            {
              "internalType": "bool",
              "name": "isJuryStake",
              "type": "bool"
            },
            {
              "internalType": "uint256",
              "name": "rewardDebt",
              "type": "uint256"
            }
          ],
          "internalType": "struct ChainSureGovernanceToken.StakeInfo",
          "name": "",
          "type": "tuple"
        }
      ],
      "stateMutability": "view",
      "type": "function"
    },
    {
      "inputs": [
        {
          "internalType": "address",
          "name": "account",
          "type": "address"
        }
      ],
      "name": "getVotes",
      "outputs": [
        {
          "internalType": "uint256",
          "name": "",
          "type": "uint256"
        }
      ],
      "stateMutability": "view",
      "type": "function"
    },
    {
      "inputs": [
        {
          "internalType": "address",
          "name": "spender",
          "type": "address"
        },
        {
          "internalType": "uint256",
          "name": "addedValue",
          "type": "uint256"
        }
      ],
      "name": "increaseAllowance",
      "outputs": [
        {
          "internalType": "bool",
          "name": "",
          "type": "bool"
        }
      ],
      "stateMutability": "nonpayable",
      "type": "function"
    },
    {
      "inputs": [
        {
          "internalType": "address",
          "name": "",
          "type": "address"
        }
      ],
      "name": "juryPool",
      "outputs": [
        {
          "internalType": "bool",
          "name": "",
          "type": "bool"
        }
      ],
      "stateMutability": "view",
      "type": "function"
    },
    {
      "inputs": [
        {
          "internalType": "address",
          "name": "",
          "type": "address"
        }
      ],
      "name": "juryReputationScore",
      "outputs": [
        {
          "internalType": "uint256",
          "name": "",
          "type": "uint256"
        }
      ],
      "stateMutability": "view",
      "type": "function"
    },
    {
      "inputs": [],
      "name": "juryRewardRate",
      "outputs": [
        {
          "internalType": "uint256",
          "name": "",
          "type": "uint256"
        }
      ],
      "stateMutability": "view",
      "type": "function"
    },
    {
      "inputs": [],
      "name": "juryStakeRequirement",
      "outputs": [
        {
          "internalType": "uint256",
          "name": "",
          "type": "uint256"
        }
      ],
      "stateMutability": "view",
      "type": "function"
    },
    {
      "inputs": [],
      "name": "maxJurySize",
      "outputs": [
        {
          "internalType": "uint256",
          "name": "",
          "type": "uint256"
        }
      ],
      "stateMutability": "view",
      "type": "function"
    },
    {
      "inputs": [],
      "name": "name",
      "outputs": [
        {
          "internalType": "string",
          "name": "",
          "type": "string"
        }
      ],
      "stateMutability": "view",
      "type": "function"
    },
    {
      "inputs": [],
      "name": "owner",
      "outputs": [
        {
          "internalType": "address",
          "name": "",
          "type": "address"
        }
      ],
      "stateMutability": "view",
      "type": "function"
    },
    {
      "inputs": [],
      "name": "pause",
      "outputs": [],
      "stateMutability": "nonpayable",
      "type": "function"
    },
    {
      "inputs": [],
      "name": "paused",
      "outputs": [
        {
          "internalType": "bool",
          "name": "",
          "type": "bool"
        }
      ],
      "stateMutability": "view",
      "type": "function"
    },
    {
      "inputs": [],
      "name": "renounceOwnership",
      "outputs": [],
      "stateMutability": "nonpayable",
      "type": "function"
    },
    {
      "inputs": [],
      "name": "reputationThreshold",
      "outputs": [
        {
          "internalType": "uint256",
          "name": "",
          "type": "uint256"
        }
      ],
      "stateMutability": "view",
      "type": "function"
    },
    {
      "inputs": [],
      "name": "rewardPool",
      "outputs": [
        {
          "internalType": "uint256",
          "name": "",
          "type": "uint256"
        }
      ],
      "stateMutability": "view",
      "type": "function"
    },
    {
      "inputs": [
        {
          "internalType": "bytes32",
          "name": "claimId",
          "type": "bytes32"
        },
        {
          "internalType": "uint256",
          "name": "jurySize",
          "type": "uint256"
        }
      ],
      "name": "selectJurors",
      "outputs": [
        {
          "internalType": "address[]",
          "name": "",
          "type": "address[]"
        }
      ],
      "stateMutability": "view",
      "type": "function"
    },
    {
      "inputs": [
        {
          "internalType": "address[]",
          "name": "maliciousActors",
          "type": "address[]"
        },
        {
          "internalType": "uint256[]",
          "name": "amounts",
          "type": "uint256[]"
        },
        {
          "internalType": "string",
          "name": "reason",
          "type": "string"
        }
      ],
      "name": "slashTokens",
      "outputs": [],
      "stateMutability": "nonpayable",
      "type": "function"
    },
    {
      "inputs": [],
      "name": "slashedTokens",
      "outputs": [
        {
          "internalType": "uint256",
          "name": "",
          "type": "uint256"
        }
      ],
      "stateMutability": "view",
      "type": "function"
    },
    {
      "inputs": [],
      "name": "slashingRate",
      "outputs": [
        {
          "internalType": "uint256",
          "name": "",
          "type": "uint256"
        }
      ],
      "stateMutability": "view",
      "type": "function"
    },
    {
      "inputs": [
        {
          "internalType": "uint256",
          "name": "amount",
          "type": "uint256"
        },
        {
          "internalType": "uint256",
          "name": "lockPeriod",
          "type": "uint256"
        },
        {
          "internalType": "bool",
          "name": "forJury",
          "type": "bool"
        }
      ],
      "name": "stakeTokens",
      "outputs": [],
      "stateMutability": "nonpayable",
      "type": "function"
    },
    {
      "inputs": [
        {
          "internalType": "address",
          "name": "",
          "type": "address"
        }
      ],
      "name": "stakes",
      "outputs": [
        {
          "internalType": "uint256",
          "name": "amount",
          "type": "uint256"
        },
        {
          "internalType": "uint256",
          "name": "lockUntil",
          "type": "uint256"
        },
        {
          "internalType": "bool",
          "name": "isJuryStake",
          "type": "bool"
        },
        {
          "internalType": "uint256",
          "name": "rewardDebt",
          "type": "uint256"
        }
      ],
      "stateMutability": "view",
      "type": "function"
    },
    {
      "inputs": [],
      "name": "symbol",
      "outputs": [
        {
          "internalType": "string",
          "name": "",
          "type": "string"
        }
      ],
      "stateMutability": "view",
      "type": "function"
    },
    {
      "inputs": [
        {
          "internalType": "address",
          "name": "",
          "type": "address"
        }
      ],
      "name": "totalRewardsEarned",
      "outputs": [
        {
          "internalType": "uint256",
          "name": "",
          "type": "uint256"
        }
      ],
      "stateMutability": "view",
      "type": "function"
    },
    {
      "inputs": [],
      "name": "totalStaked",
      "outputs": [
        {
          "internalType": "uint256",
          "name": "",
          "type": "uint256"
        }
      ],
      "stateMutability": "view",
      "type": "function"
    },
    {
      "inputs": [],
      "name": "totalSupply",
      "outputs": [
        {
          "internalType": "uint256",
          "name": "",
          "type": "uint256"
        }
      ],
      "stateMutability": "view",
      "type": "function"
    },
    {
      "inputs": [
        {
          "internalType": "address",
          "name": "to",
          "type": "address"
        },
        {
          "internalType": "uint256",
          "name": "amount",
          "type": "uint256"
        }
      ],
      "name": "transfer",
      "outputs": [
        {
          "internalType": "bool",
          "name": "",
          "type": "bool"
        }
      ],
      "stateMutability": "nonpayable",
      "type": "function"
    },
    {
      "inputs": [
        {
          "internalType": "address",
          "name": "from",
          "type": "address"
        },
        {
          "internalType": "address",
          "name": "to",
          "type": "address"
        },
        {
          "internalType": "uint256",
          "name": "amount",
          "type": "uint256"
        }
      ],
      "name": "transferFrom",
      "outputs": [
        {
          "internalType": "bool",
          "name": "",
          "type": "bool"
        }
      ],
      "stateMutability": "nonpayable",
      "type": "function"
    },
    {
      "inputs": [
        {
          "internalType": "address",
          "name": "newOwner",
          "type": "address"
        }
      ],
      "name": "transferOwnership",
      "outputs": [],
      "stateMutability": "nonpayable",
      "type": "function"
    },
    {
      "inputs": [],
      "name": "unpause",
      "outputs": [],
      "stateMutability": "nonpayable",
      "type": "function"
    },
    {
      "inputs": [
        {
          "internalType": "uint256",
          "name": "amount",
          "type": "uint256"
        }
      ],
      "name": "unstakeTokens",
      "outputs": [],
      "stateMutability": "nonpayable",
      "type": "function"
    },
    {
      "inputs": [
        {
          "internalType": "uint256",
          "name": "newRequirement",
          "type": "uint256"
        }
      ],
      "name": "updateJuryStakeRequirement",
      "outputs": [],
      "stateMutability": "nonpayable",
      "type": "function"
    },
    {
      "inputs": [
        {
          "internalType": "uint256",
          "name": "newMaxSize",
          "type": "uint256"
        }
      ],
      "name": "updateMaxJurySize",
      "outputs": [],
      "stateMutability": "nonpayable",
      "type": "function"
    }
  ],
  "bytecode": "0x6080604052683635c9adc5dea00000600d556103e8600e5560646011556103e8601255611f406013553480156200003557600080fd5b5060405162002ff238038062002ff28339810160408190526200005891620002d7565b6040518060400160405280601481526020017f436861696e5375726520476f7665726e616e636500000000000000000000000081525060405180604001604052806005815260200164435355524560d81b8152508160039081620000bd919062000395565b506004620000cc828262000395565b505050620000e9620000e36200013260201b60201c565b62000136565b6005805460ff60a01b19169055600160065562000107338262000188565b62000114600a8262000461565b600f55503360009081526009602052604090206127109055620004ac565b3390565b600580546001600160a01b038381166001600160a01b0319831681179093556040519116919082907f8be0079c531659141344cd1fd0a4f28419497f9722a3daafe3b4186f6b6457e090600090a35050565b6001600160a01b038216620001e45760405162461bcd60e51b815260206004820152601f60248201527f45524332303a206d696e7420746f20746865207a65726f20616464726573730060448201526064015b60405180910390fd5b620001f2600083836200025d565b806002600082825462000206919062000484565b90915550506001600160a01b038216600081815260208181526040808320805486019055518481527fddf252ad1be2c89b69c2b068fc378daa952ba7f163c4a11628f55a4df523b3ef910160405180910390a35050565b620002676200027f565b6200027a8383836001600160e01b038416565b505050565b62000293600554600160a01b900460ff1690565b15620002d55760405162461bcd60e51b815260206004820152601060248201526f14185d5cd8589b194e881c185d5cd95960821b6044820152606401620001db565b565b600060208284031215620002ea57600080fd5b5051919050565b634e487b7160e01b600052604160045260246000fd5b600181811c908216806200031c57607f821691505b6020821081036200033d57634e487b7160e01b600052602260045260246000fd5b50919050565b601f8211156200027a57600081815260208120601f850160051c810160208610156200036c5750805b601f850160051c820191505b818110156200038d5782815560010162000378565b505050505050565b81516001600160401b03811115620003b157620003b1620002f1565b620003c981620003c2845462000307565b8462000343565b602080601f831160018114620004015760008415620003e85750858301515b600019600386901b1c1916600185901b1785556200038d565b600085815260208120601f198616915b82811015620004325788860151825594840194600190910190840162000411565b5085821015620004515787850151600019600388901b60f8161c191681555b5050505050600190811b01905550565b6000826200047f57634e487b7160e01b600052601260045260246000fd5b500490565b80820180821115620004a657634e487b7160e01b600052601160045260246000fd5b92915050565b612b3680620004bc6000396000f3fe608060405234801561001057600080fd5b50600436106102955760003560e01c8063817b1cd211610167578063bd0bdb34116100ce578063dff2d7e511610087578063dff2d7e5146105ef578063e2da844d14610602578063e4571dc514610615578063e4f24cb014610635578063f2fde38b14610655578063fa2158b11461066857600080fd5b8063bd0bdb3414610554578063bd8a582d14610577578063c345315314610581578063d342f484146105c9578063d410e8ba146105d3578063dd62ed3e146105dc57600080fd5b8063a457c2d711610120578063a457c2d7146104ec578063a9059cbb146104ff578063b4e1e98714610512578063b8dd625f1461051b578063b95ffbce1461052e578063b9e2c1e01461054157600080fd5b8063817b1cd2146104925780638456cb591461049b5780638da5cb5b146104a357806395d89b41146104c85780639683e2b3146104d05780639ab24eb0146104d957600080fd5b80633f4ba83a1161020b57806366666aa9116101c457806366666aa91461041f5780636a853c061461042857806370a082311461043b578063715018a61461046457806379cc67901461046c5780637d8dc0c21461047f57600080fd5b80633f4ba83a146103ce57806342966c68146103d65780635a3b390f146103e95780635c975abb146103f15780635ff8bd4d14610403578063608e4dd01461040c57600080fd5b806313baa0691161025d57806313baa0691461032757806316934fc41461033057806318160ddd1461039157806323b872dd14610399578063313ce567146103ac57806339509351146103bb57600080fd5b806306fdde031461029a578063095ea7b3146102b85780630ad852f4146102db5780630dc5c9ab146102f05780630f5cb70814610310575b600080fd5b6102a2610672565b6040516102af919061253a565b60405180910390f35b6102cb6102c63660046125a4565b610704565b60405190151581526020016102af565b6102ee6102e93660046125ce565b61071e565b005b6103036102fe3660046125e7565b61072b565b6040516102af9190612609565b61031960105481565b6040519081526020016102af565b61031960125481565b61036b61033e366004612656565b60076020526000908152604090208054600182015460028301546003909301549192909160ff9091169084565b6040805194855260208501939093529015159183019190915260608201526080016102af565b600254610319565b6102cb6103a7366004612678565b610a56565b604051601281526020016102af565b6102cb6103c93660046125a4565b610a7a565b6102ee610a9c565b6102ee6103e43660046125ce565b610aae565b600b54610319565b600554600160a01b900460ff166102cb565b610319600d5481565b6102ee61041a3660046125ce565b610abb565b610319600f5481565b6102cb610436366004612656565b610d04565b610319610449366004612656565b6001600160a01b031660009081526020819052604090205490565b6102ee610d5e565b6102ee61047a3660046125a4565b610d70565b6102ee61048d366004612700565b610d89565b610319600c5481565b6102ee61103f565b6005546001600160a01b03165b6040516001600160a01b0390911681526020016102af565b6102a261104f565b61031960115481565b6103196104e7366004612656565b61105e565b6102cb6104fa3660046125a4565b61107c565b6102cb61050d3660046125a4565b6110f7565b610319600e5481565b6102ee610529366004612700565b611105565b6102ee61053c3660046125ce565b6115bf565b6102ee61054f3660046127c6565b61161b565b6102cb610562366004612656565b60086020526000908152604090205460ff1681565b6103196212750081565b61059461058f366004612656565b611a99565b6040516102af919081518152602080830151908201526040808301511515908201526060918201519181019190915260800190565b61031962093a8081565b61031960135481565b6103196105ea366004612804565b611b19565b6102ee6105fd3660046125ce565b611b44565b6104b06106103660046125ce565b611b51565b610319610623366004612656565b60096020526000908152604090205481565b610319610643366004612656565b600a6020526000908152604090205481565b6102ee610663366004612656565b611b7b565b61031962278d0081565b60606003805461068190612837565b80601f01602080910402602001604051908101604052809291908181526020018280546106ad90612837565b80156106fa5780601f106106cf576101008083540402835291602001916106fa565b820191906000526020600020905b8154815290600101906020018083116106dd57829003601f168201915b5050505050905090565b600033610712818585611bf1565b60019150505b92915050565b610726611d15565b600e55565b600b546060908211156107945760405162461bcd60e51b815260206004820152602660248201527f436861696e53757265476f7665726e616e63653a206e6f7420656e6f756768206044820152656a75726f727360d01b60648201526084015b60405180910390fd5b600082116107fc5760405162461bcd60e51b815260206004820152602f60248201527f436861696e53757265476f7665726e616e63653a206a7572792073697a65206d60448201526e75737420626520706f73697469766560881b606482015260840161078b565b60008267ffffffffffffffff81111561081757610817612871565b604051908082528060200260200182016040528015610840578160200160208202803683370190505b50600b5490915060009067ffffffffffffffff81111561086257610862612871565b60405190808252806020026020018201604052801561088b578160200160208202803683370190505b50905060005b600b548110156108cb57808282815181106108ae576108ae612887565b6020908102919091010152806108c3816128b3565b915050610891565b50600085426108db6001436128cc565b6040805160208101949094528301919091524060608201526080016040516020818303038152906040528051906020012060001c905060005b85811015610a4b57600b5460009061092d9083906128cc565b61093790846128f5565b9050600b84828151811061094d5761094d612887565b60200260200101518154811061096557610965612887565b9060005260206000200160009054906101000a90046001600160a01b031685838151811061099557610995612887565b6001600160a01b0390921660209283029190910190910152600b54849083906109c0906001906128cc565b6109ca91906128cc565b815181106109da576109da612887565b60200260200101518482815181106109f4576109f4612887565b6020026020010181815250508282604051602001610a1c929190918252602082015260400190565b6040516020818303038152906040528051906020012060001c9250508080610a43906128b3565b915050610914565b509195945050505050565b600033610a64858285611d6f565b610a6f858585611de9565b506001949350505050565b600033610712818585610a8d8383611b19565b610a979190612909565b611bf1565b610aa4611d15565b610aac611f98565b565b610ab83382611fed565b50565b33600090815260076020526040902054610b215760405162461bcd60e51b815260206004820152602160248201527f436861696e53757265476f7665726e616e63653a206e6f742061207374616b656044820152603960f91b606482015260840161078b565b610b2961212b565b610b31612178565b60008111610b515760405162461bcd60e51b815260040161078b9061291c565b33600090815260076020526040902054811115610b805760405162461bcd60e51b815260040161078b90612968565b33600090815260076020526040902060010154421015610bf35760405162461bcd60e51b815260206004820152602860248201527f436861696e53757265476f7665726e616e63653a20746f6b656e73207374696c6044820152671b081b1bd8dad95960c21b606482015260840161078b565b3360009081526007602052604090206002015460ff168015610c305750600d5433600090815260076020526040902054610c2e9083906128cc565b105b15610c3e57610c3e336121d1565b3360009081526007602052604081208054839290610c5d9084906128cc565b9091555050336000908152600760205260408120549003610ca2573360009081526007602052604081208181556001810182905560028101805460ff19169055600301555b80600c6000828254610cb491906128cc565b90915550610cc59050303383611de9565b60405181815233907f9845e367b683334e5c0b12d7b81721ac518e649376fa65e3d68324e8f34f26799060200160405180910390a2610ab86001600655565b600d546001600160a01b038216600090815260076020526040812054909111801590610d4a57506013546001600160a01b03831660009081526009602052604090205410155b80156107185750600e54600b541092915050565b610d66611d15565b610aac6000612382565b610d7b823383611d6f565b610d858282611fed565b5050565b6005546001600160a01b0316331480610da157503330145b610dbd5760405162461bcd60e51b815260040161078b906129a5565b610dc561212b565b848314610de45760405162461bcd60e51b815260040161078b906129e8565b60005b85811015611036576000878783818110610e0357610e03612887565b9050602002016020810190610e189190612656565b90506000868684818110610e2e57610e2e612887565b6001600160a01b03851660009081526007602090815260409091205491029290920135925050811115610e735760405162461bcd60e51b815260040161078b90612968565b6001600160a01b03821660009081526008602052604090205460ff1615610e9d57610e9d826121d1565b600061271060125483610eb09190612a32565b610eba9190612a49565b6001600160a01b038416600090815260096020526040902054909150811015610f10576001600160a01b03831660009081526009602052604081208054839290610f059084906128cc565b90915550610f2a9050565b6001600160a01b0383166000908152600960205260408120555b6001600160a01b03831660009081526007602052604081208054849290610f529084906128cc565b9250508190555081600c6000828254610f6b91906128cc565b925050819055508160106000828254610f849190612909565b90915550506001600160a01b0383166000908152600760205260408120549003610fdb576001600160a01b03831660009081526007602052604081208181556001810182905560028101805460ff19169055600301555b826001600160a01b03167f1dbf53fe47a6085b520609dcbbd7f534903eb8b52e2da84c053b689e375b578f83888860405161101893929190612a5d565b60405180910390a2505050808061102e906128b3565b915050610de7565b50505050505050565b611047611d15565b610aac6123d4565b60606004805461068190612837565b6001600160a01b038116600090815260208190526040812054610718565b6000338161108a8286611b19565b9050838110156110ea5760405162461bcd60e51b815260206004820152602560248201527f45524332303a2064656372656173656420616c6c6f77616e63652062656c6f77604482015264207a65726f60d81b606482015260840161078b565b610a6f8286868403611bf1565b600033610712818585611de9565b6005546001600160a01b031633148061111d57503330145b6111395760405162461bcd60e51b815260040161078b906129a5565b61114161212b565b8483146111605760405162461bcd60e51b815260040161078b906129e8565b60005b8581101561103657600087878381811061117f5761117f612887565b90506020020160208101906111949190612656565b6001600160a01b0316036111f95760405162461bcd60e51b815260206004820152602660248201527f436861696e53757265476f7665726e616e63653a20696e76616c6964207265636044820152651a5c1a595b9d60d21b606482015260840161078b565b600f5485858381811061120e5761120e612887565b9050602002013511156112675760405162461bcd60e51b815260206004820152602d6024820152600080516020612ae183398151915260448201526c1d081c995dd85c99081c1bdbdb609a1b606482015260840161078b565b84848281811061127957611279612887565b90506020020135600f600082825461129191906128cc565b9091555085905084828181106112a9576112a9612887565b90506020020135600a60008989858181106112c6576112c6612887565b90506020020160208101906112db9190612656565b6001600160a01b03166001600160a01b03168152602001908152602001600020600082825461130a9190612909565b90915550859050848281811061132257611322612887565b905060200201356007600089898581811061133f5761133f612887565b90506020020160208101906113549190612656565b6001600160a01b03166001600160a01b0316815260200190815260200160002060030160008282546113869190612909565b909155506127109050600960008989858181106113a5576113a5612887565b90506020020160208101906113ba9190612656565b6001600160a01b03166001600160a01b031681526020019081526020016000205410156114e257601154600960008989858181106113fa576113fa612887565b905060200201602081019061140f9190612656565b6001600160a01b03166001600160a01b03168152602001908152602001600020600082825461143e9190612909565b9091555061271090506009600089898581811061145d5761145d612887565b90506020020160208101906114729190612656565b6001600160a01b03166001600160a01b031681526020019081526020016000205411156114e257612710600960008989858181106114b2576114b2612887565b90506020020160208101906114c79190612656565b6001600160a01b031681526020810191909152604001600020555b61152a8787838181106114f7576114f7612887565b905060200201602081019061150c9190612656565b86868481811061151e5761151e612887565b90506020020135612417565b86868281811061153c5761153c612887565b90506020020160208101906115519190612656565b6001600160a01b03167f4d0fbf7833f858a26f21c7955ed012c260edd1a28f1a258c1034686af726e3fe86868481811061158d5761158d612887565b9050602002013585856040516115a593929190612a5d565b60405180910390a2806115b7816128b3565b915050611163565b6115c7611d15565b336000908152602081905260409020548111156115f65760405162461bcd60e51b815260040161078b90612a93565b611601333083611de9565b80600f60008282546116139190612909565b909155505050565b61162361212b565b61162b612178565b6000831161164b5760405162461bcd60e51b815260040161078b9061291c565b3360009081526020819052604090205483111561167a5760405162461bcd60e51b815260040161078b90612a93565b62093a808210156116e05760405162461bcd60e51b815260206004820152602a60248201527f436861696e53757265476f7665726e616e63653a206c6f636b20706572696f64604482015269081d1bdbc81cda1bdc9d60b21b606482015260840161078b565b801561186e57600d548310156117405760405162461bcd60e51b81526020600482015260316024820152600080516020612ae18339815191526044820152707420616d6f756e7420666f72206a75727960781b606482015260840161078b565b62278d008210156117ab5760405162461bcd60e51b815260206004820152602f60248201527f436861696e53757265476f7665726e616e63653a206a757279206c6f636b207060448201526e195c9a5bd9081d1bdbc81cda1bdc9d608a1b606482015260840161078b565b600e54600b541061180a5760405162461bcd60e51b815260206004820152602360248201527f436861696e53757265476f7665726e616e63653a206a75727920706f6f6c20666044820152621d5b1b60ea1b606482015260840161078b565b60135433600090815260096020526040902054101561186e5760405162461bcd60e51b815260206004820152602c6024820152600080516020612ae183398151915260448201526b3a103932b83aba30ba34b7b760a11b606482015260840161078b565b611879333085611de9565b33600090815260076020526040902054156119045733600090815260076020526040812080548592906118ad908490612909565b9091555081905080156118dc5750336000908152600760205260409020600101546118d99042906128cc565b82115b156118ff576118eb8242612909565b336000908152600760205260409020600101555b611974565b604051806080016040528084815260200183426119219190612909565b81528215156020808301919091526000604092830181905233815260078252829020835181559083015160018201559082015160028201805460ff19169115159190911790556060909101516003909101555b80801561199157503360009081526008602052604090205460ff16155b15611a38573360008181526008602090815260408083208054600160ff199182168117909255600b80548084019091557f0175b7a638427703f0dbe7bb9bbf987a2551717b34e79f33b5b1008d1fa01db90180546001600160a01b03191687179055600784529382902060020180549094161790925590518581527ffa9e1f63caa437de5a8b1c14bf83890336e81d6eda503e150106e87c831fd959910160405180910390a25b82600c6000828254611a4a9190612909565b9091555050604080518481526020810184905233917fdd2a19c3bdd089cbe77c04f5655f83de0504d6140d12c8667646f55d0557c4dc910160405180910390a2611a946001600655565b505050565b611ac660405180608001604052806000815260200160008152602001600015158152602001600081525090565b506001600160a01b0316600090815260076020908152604091829020825160808101845281548152600182015492810192909252600281015460ff16151592820192909252600390910154606082015290565b6001600160a01b03918216600090815260016020908152604080832093909416825291909152205490565b611b4c611d15565b600d55565b600b8181548110611b6157600080fd5b6000918252602090912001546001600160a01b0316905081565b611b83611d15565b6001600160a01b038116611be85760405162461bcd60e51b815260206004820152602660248201527f4f776e61626c653a206e6577206f776e657220697320746865207a65726f206160448201526564647265737360d01b606482015260840161078b565b610ab881612382565b6001600160a01b038316611c535760405162461bcd60e51b8152602060048201526024808201527f45524332303a20617070726f76652066726f6d20746865207a65726f206164646044820152637265737360e01b606482015260840161078b565b6001600160a01b038216611cb45760405162461bcd60e51b815260206004820152602260248201527f45524332303a20617070726f766520746f20746865207a65726f206164647265604482015261737360f01b606482015260840161078b565b6001600160a01b0383811660008181526001602090815260408083209487168084529482529182902085905590518481527f8c5be1e5ebec7d5bd14f71427d1e84f3dd0314c0f7b2291e5b200ac8c7c3b925910160405180910390a3505050565b6005546001600160a01b03163314610aac5760405162461bcd60e51b815260206004820181905260248201527f4f776e61626c653a2063616c6c6572206973206e6f7420746865206f776e6572604482015260640161078b565b6000611d7b8484611b19565b90506000198114611de35781811015611dd65760405162461bcd60e51b815260206004820152601d60248201527f45524332303a20696e73756666696369656e7420616c6c6f77616e6365000000604482015260640161078b565b611de38484848403611bf1565b50505050565b6001600160a01b038316611e4d5760405162461bcd60e51b815260206004820152602560248201527f45524332303a207472616e736665722066726f6d20746865207a65726f206164604482015264647265737360d81b606482015260840161078b565b6001600160a01b038216611eaf5760405162461bcd60e51b815260206004820152602360248201527f45524332303a207472616e7366657220746f20746865207a65726f206164647260448201526265737360e81b606482015260840161078b565b611eba8383836124e2565b6001600160a01b03831660009081526020819052604090205481811015611f325760405162461bcd60e51b815260206004820152602660248201527f45524332303a207472616e7366657220616d6f756e7420657863656564732062604482015265616c616e636560d01b606482015260840161078b565b6001600160a01b03848116600081815260208181526040808320878703905593871680835291849020805487019055925185815290927fddf252ad1be2c89b69c2b068fc378daa952ba7f163c4a11628f55a4df523b3ef910160405180910390a3611de3565b611fa06124ea565b6005805460ff60a01b191690557f5db9ee0a495bf2e6ff9c91a7834c1ba4fdd244a5e8aa4e537bd38aeae4b073aa335b6040516001600160a01b03909116815260200160405180910390a1565b6001600160a01b03821661204d5760405162461bcd60e51b815260206004820152602160248201527f45524332303a206275726e2066726f6d20746865207a65726f206164647265736044820152607360f81b606482015260840161078b565b612059826000836124e2565b6001600160a01b038216600090815260208190526040902054818110156120cd5760405162461bcd60e51b815260206004820152602260248201527f45524332303a206275726e20616d6f756e7420657863656564732062616c616e604482015261636560f01b606482015260840161078b565b6001600160a01b0383166000818152602081815260408083208686039055600280548790039055518581529192917fddf252ad1be2c89b69c2b068fc378daa952ba7f163c4a11628f55a4df523b3ef910160405180910390a3505050565b600554600160a01b900460ff1615610aac5760405162461bcd60e51b815260206004820152601060248201526f14185d5cd8589b194e881c185d5cd95960821b604482015260640161078b565b6002600654036121ca5760405162461bcd60e51b815260206004820152601f60248201527f5265656e7472616e637947756172643a207265656e7472616e742063616c6c00604482015260640161078b565b6002600655565b6001600160a01b03811660009081526008602052604090205460ff166121f45750565b6001600160a01b0381166000908152600860209081526040808320805460ff1990811690915560079092528220600201805490911690555b600b5481101561233157816001600160a01b0316600b828154811061225357612253612887565b6000918252602090912001546001600160a01b03160361231f57600b805461227d906001906128cc565b8154811061228d5761228d612887565b600091825260209091200154600b80546001600160a01b0390921691839081106122b9576122b9612887565b9060005260206000200160006101000a8154816001600160a01b0302191690836001600160a01b03160217905550600b8054806122f8576122f8612aca565b600082815260209020810160001990810180546001600160a01b0319169055019055612331565b80612329816128b3565b91505061222c565b506001600160a01b0381166000818152600760209081526040918290205491519182527fb7746526d57c39e6c6b7c6e7b791d5f13e4217c8ce05d3bd96319537204653d1910160405180910390a250565b600580546001600160a01b038381166001600160a01b0319831681179093556040519116919082907f8be0079c531659141344cd1fd0a4f28419497f9722a3daafe3b4186f6b6457e090600090a35050565b6123dc61212b565b6005805460ff60a01b1916600160a01b1790557f62e78cea01bee320cd4e420270b5ea74000d11b0c9f74754ebdbfc544b05a258611fd03390565b6001600160a01b03821661246d5760405162461bcd60e51b815260206004820152601f60248201527f45524332303a206d696e7420746f20746865207a65726f206164647265737300604482015260640161078b565b612479600083836124e2565b806002600082825461248b9190612909565b90915550506001600160a01b038216600081815260208181526040808320805486019055518481527fddf252ad1be2c89b69c2b068fc378daa952ba7f163c4a11628f55a4df523b3ef910160405180910390a35050565b611a9461212b565b600554600160a01b900460ff16610aac5760405162461bcd60e51b815260206004820152601460248201527314185d5cd8589b194e881b9bdd081c185d5cd95960621b604482015260640161078b565b600060208083528351808285015260005b818110156125675785810183015185820160400152820161254b565b506000604082860101526040601f19601f8301168501019250505092915050565b80356001600160a01b038116811461259f57600080fd5b919050565b600080604083850312156125b757600080fd5b6125c083612588565b946020939093013593505050565b6000602082840312156125e057600080fd5b5035919050565b600080604083850312156125fa57600080fd5b50508035926020909101359150565b6020808252825182820181905260009190848201906040850190845b8181101561264a5783516001600160a01b031683529284019291840191600101612625565b50909695505050505050565b60006020828403121561266857600080fd5b61267182612588565b9392505050565b60008060006060848603121561268d57600080fd5b61269684612588565b92506126a460208501612588565b9150604084013590509250925092565b60008083601f8401126126c657600080fd5b50813567ffffffffffffffff8111156126de57600080fd5b6020830191508360208260051b85010111156126f957600080fd5b9250929050565b6000806000806000806060878903121561271957600080fd5b863567ffffffffffffffff8082111561273157600080fd5b61273d8a838b016126b4565b9098509650602089013591508082111561275657600080fd5b6127628a838b016126b4565b9096509450604089013591508082111561277b57600080fd5b818901915089601f83011261278f57600080fd5b81358181111561279e57600080fd5b8a60208285010111156127b057600080fd5b6020830194508093505050509295509295509295565b6000806000606084860312156127db57600080fd5b8335925060208401359150604084013580151581146127f957600080fd5b809150509250925092565b6000806040838503121561281757600080fd5b61282083612588565b915061282e60208401612588565b90509250929050565b600181811c9082168061284b57607f821691505b60208210810361286b57634e487b7160e01b600052602260045260246000fd5b50919050565b634e487b7160e01b600052604160045260246000fd5b634e487b7160e01b600052603260045260246000fd5b634e487b7160e01b600052601160045260246000fd5b6000600182016128c5576128c561289d565b5060010190565b818103818111156107185761071861289d565b634e487b7160e01b600052601260045260246000fd5b600082612904576129046128df565b500690565b808201808211156107185761071861289d565b6020808252602c908201527f436861696e53757265476f7665726e616e63653a20616d6f756e74206d75737460408201526b20626520706f73697469766560a01b606082015260800190565b6020808252602f90820152600080516020612ae183398151915260408201526e1d081cdd185ad95908185b5bdd5b9d608a1b606082015260800190565b60208082526023908201527f436861696e53757265476f7665726e616e63653a206e6f7420617574686f72696040820152621e995960ea1b606082015260800190565b6020808252602a908201527f436861696e53757265476f7665726e616e63653a206172726179206c656e67746040820152690d040dad2e6dac2e8c6d60b31b606082015260800190565b80820281158282048414176107185761071861289d565b600082612a5857612a586128df565b500490565b83815260406020820152816040820152818360608301376000818301606090810191909152601f909201601f1916010192915050565b6020808252602990820152600080516020612ae1833981519152604082015268742062616c616e636560b81b606082015260800190565b634e487b7160e01b600052603160045260246000fdfe436861696e53757265476f7665726e616e63653a20696e73756666696369656ea264697066735822122035a7665234be588220f6d6566890e0f6a9e32cefe81bd0c7701eef761957e9d164736f6c63430008140033",
  "linkReferences": {},
  "deployedLinkReferences": {}
}